:100000000C942A000C9433080C9466080C949908FC
:100010000C94C0020C94ED020C9408040C943A0465
:100020000C9467040C9494040C9486050C94B3050A
:100030000C9447000C9447000C9447000C94470024
:100040000C94390D0C9447000C9447000C94470015
:100050000C94470011241FBECFE5D8E0DEBFCDBF12
:1000600010E0A0E6B0E0ECE2F7E202C005900D92ED
:10007000A638B107D9F710E0A6E8B0E001C01D929C
:10008000AC3AB107E1F70E946C0F0C9494130C94F6
:100090000000DF93CF9300D0CDB7DEB79A8389837A
:1000A00080E00F900F90CF91DF910895DF93CF9371
:1000B00000D00F92CDB7DEB79A838983E981FA81A8
:1000C000808191811B82009711F481E08B838B8169
:1000D0000F900F900F90CF91DF910895DF93CF9302
:1000E00000D00F92CDB7DEB79B838A8319828A81B5
:1000F0009B81009761F0EA81FB8112821382148256
:100100001582EA81FB811182108281E089838981D5
:100110000F900F900F90CF91DF910895DF93CF93C1
:10012000CDB7DEB729970FB6F894DEBF0FBECDBFAF
:100130009D838C834E835F83688779871B8286E0EB
:1001400090E00E94C60F9A8389838C819D810097DD
:1001500079F18C819D810E944900882349F5E981CC
:10016000FA818E819F81A885B98582839383A48338
:10017000B583EC81FD8180819181E981FA81918350
:100180008083EC81FD8189819A8191838083EC81D8
:10019000FD8182819381A481B5810196A11DB11D4C
:1001A000EC81FD8182839383A483B58381E08B837B
:1001B0008B8129960FB6F894DEBF0FBECDBFCF91CD
:1001C000DF910895DF93CF93CDB7DEB727970FB6B2
:1001D000F894DEBF0FBECDBF9D838C837F836E837B
:1001E0001B821A8219828C819D81009709F43FC07D
:1001F0008E819F810097D9F18C819D810E9456004C
:100200008823A9F5EC81FD810190F081E02D8281A8
:100210009381A481B581EE81FF8180839183A28344
:10022000B383EC81FD81808191819B838A83EC8102
:10023000FD810190F081E02D80819181EC81FD8133
:10024000918380838A819B810E947310EC81FD8160
:1002500082819381A481B5810197A109B109EC81C3
:10026000FD8182839383A483B58381E0898389811F
:1002700027960FB6F894DEBF0FBECDBFCF91DF91AA
:100280000895DF93CF9300D000D00F92CDB7DEB7A3
:100290009D838C831B821A8219828C819D81009799
:1002A000E1F1EC81FD81808191819A8389832FC066
:1002B000E981FA8160817181E981FA81228133814A
:1002C000448155818DB79EB708970FB6F8949EBFAD
:1002D0000FBE8DBFEDB7FEB7319680E690E09183FB
:1002E00080837383628324833583468357830E948C
:1002F000CB108DB79EB708960FB6F8949EBF0FBE71
:100300008DBFE981FA81808191819A838983898176
:100310009A81009769F681E08B838B810F900F9013
:100320000F900F900F90CF91DF910895DF93CF93AF
:1003300000D000D00F92CDB7DEB79D838C831B8297
:100340001A821982EC81FD81808191819A8389834F
:100350008C819D810097F9F012C0E981FA8180813A
:1003600091819A838983EC81FD81808191810E94B2
:100370007310EC81FD8189819A81918380838981C9
:100380009A81009751F7EC81FD81128213821482C9
:10039000158281E08B838B810F900F900F900F90CF
:1003A0000F90CF91DF910895DF93CF9300D000D0CD
:1003B0000F92CDB7DEB79B838A837D836C831982CE
:1003C0008A819B81009771F0EA81FB818281938110
:1003D000A481B581EC81FD8180839183A283B38365
:1003E00081E0898389810F900F900F900F900F907B
:1003F000CF91DF910895DF93CF9300D00F92CDB7C7
:10040000DEB78B831A8219828B81882F90E0982F18
:1004100088279A83898389819A8124E630E0B9010B
:100420000E94750FCB019A838983E3E4F0E0898110
:1004300080830F900F900F90CF91DF910895DF93FD
:10044000CF9300D000D0CDB7DEB79C838B831A82C8
:10045000198210C0E8E5F0E0808180788823D1F32C
:10046000E8E5F0E080818068808389819A81019647
:100470009A83898329813A818B819C812817390746
:1004800048F30F900F900F900F90CF91DF91089548
:10049000DF93CF93CDB7DEB7E5E4F0E08081887FCE
:1004A00084608083E5E4F0E080818F7B8083E5E4F5
:1004B000F0E0808188608083E5E4F0E080818F7CDB
:1004C00080618083E9E5F0E0808180688083CF915E
:1004D000DF910895DF93CF930F92CDB7DEB7898375
:1004E000E4E4F0E0898180830F90CF91DF9108955B
:1004F000DF93CF930F92CDB7DEB78983E3E4F0E0CB
:10050000898180830F90CF91DF910895DF93CF93FE
:1005100000D00F92CDB7DEB79B838A8319828A8180
:100520009B81009719F481E0898306C08A819B81B1
:10053000909389008093880089810F900F900F908D
:10054000CF91DF910895DF93CF9300D00F92CDB775
:10055000DEB79B838A8319828A819B81009719F475
:1005600081E0898306C08A819B8190938700809374
:10057000860089810F900F900F90CF91DF910895A1
:100580001F920F920FB60F9211242F933F934F9308
:100590005F936F937F938F939F93AF93BF93EF93EB
:1005A000FF93DF93CF93CDB7DEB7E0918600F09154
:1005B00087000995CF91DF91FF91EF91BF91AF91A6
:1005C0009F918F917F916F915F914F913F912F916B
:1005D0000F900FBE0F901F9018951F920F920FB69D
:1005E0000F9211242F933F934F935F936F937F93B9
:1005F0008F939F93AF93BF93EF93FF93DF93CF932B
:10060000CDB7DEB7E0918800F09189000995CF91D0
:10061000DF91FF91EF91BF91AF919F918F917F916A
:100620006F915F914F913F912F910F900FBE0F905F
:100630001F901895DF93CF93CDB7DEB7EEE4F0E0CF
:100640008081887F84608083EFE4F0E080818C7F0C
:100650008083EEE4F0E08081877E88608083EFE431
:10066000F0E080818F738083EFE4F0E080818F7C05
:100670008083E9E5F0E0808180618083CF91DF9124
:100680000895DF93CF9300D0CDB7DEB79A838983E7
:10069000EAE4F0E089819A81918380830F900F9042
:1006A000CF91DF910895DF93CF9300D0CDB7DEB720
:1006B0009A838983E8E4F0E089819A819183808339
:1006C0000F900F90CF91DF910895DF93CF9300D0DB
:1006D000CDB7DEB79A838983E6E4F0E089819A8119
:1006E000918380830F900F90CF91DF910895DF93D6
:1006F000CF9300D0CDB7DEB79A838983ECE4F0E0E6
:1007000089819A81918380830F900F90CF91DF919F
:100710000895DF93CF93CDB7DEB7ECE4F0E08081AE
:100720009181CF91DF910895DF93CF9300D00F9205
:10073000CDB7DEB79B838A8319828A819B8100971C
:1007400019F481E0898306C08A819B8190938B0094
:1007500080938A0089810F900F900F90CF91DF9145
:100760000895DF93CF9300D00F92CDB7DEB79B8370
:100770008A8319828A819B81009719F481E0898399
:1007800006C08A819B8190938D0080938C00898123
:100790000F900F900F90CF91DF910895DF93CF933B
:1007A00000D00F92CDB7DEB79B838A8319828A81EE
:1007B0009B81009719F481E0898306C08A819B811F
:1007C00090938F0080938E0089810F900F900F90EF
:1007D000CF91DF910895DF93CF9300D00F92CDB7E3
:1007E000DEB79B838A8319828A819B81009719F4E3
:1007F00081E0898306C08A819B81909391008093D8
:10080000900089810F900F900F90CF91DF91089504
:100810001F920F920FB60F9211242F933F934F9375
:100820005F936F937F938F939F93AF93BF93EF9358
:10083000FF93DF93CF93CDB7DEB7E0919000F091B7
:1008400091000995E8E5F0E0808180628083CF9196
:10085000DF91FF91EF91BF91AF919F918F917F9128
:100860006F915F914F913F912F910F900FBE0F901D
:100870001F9018951F920F920FB60F9211242F936D
:100880003F934F935F936F937F938F939F93AF9318
:10089000BF93EF93FF93DF93CF93CDB7DEB7E09194
:1008A0008A00F0918B000995CF91DF91FF91EF9134
:1008B000BF91AF919F918F917F916F915F914F9178
:1008C0003F912F910F900FBE0F901F9018951F9280
:1008D0000F920FB60F9211242F933F934F935F9374
:1008E0006F937F938F939F93AF93BF93EF93FF93F8
:1008F000DF93CF93CDB7DEB7E0918C00F0918D0000
:100900000995CF91DF91FF91EF91BF91AF919F91A9
:100910008F917F916F915F914F913F912F910F90A8
:100920000FBE0F901F9018951F920F920FB60F9247
:1009300011242F933F934F935F936F937F938F93E4
:100940009F93AF93BF93EF93FF93DF93CF93CDB775
:10095000DEB7E0918E00F0918F000995CF91DF9185
:10096000FF91EF91BF91AF919F918F917F916F9187
:100970005F914F913F912F910F900FBE0F901F905D
:100980001895DF93CF9300D00F92CDB7DEB78B834E
:100990001A8219828B81882F90E0982F88279A835A
:1009A000898389819A8124E630E0B9010E94750F1C
:1009B000CB019A838983ECE5F0E0898180830F90F5
:1009C0000F900F90CF91DF910895DF93CF9300D0D8
:1009D00000D0CDB7DEB79C838B831A82198210C0FA
:1009E000E8E5F0E0808182708823D1F3E8E5F0E06B
:1009F00080818260808389819A8101969A8389832C
:100A000029813A818B819C812817390748F30F90FF
:100A10000F900F900F90CF91DF910895DF93CF93B8
:100A2000CDB7DEB7E3E5F0E08081887F8260808328
:100A3000E3E5F0E0808180648083E3E5F0E080819D
:100A400088608083E3E5F0E080818F7C8062808332
:100A5000E9E5F0E0808182608083CF91DF910895A5
:100A6000DF93CF930F92CDB7DEB78983E2E5F0E055
:100A7000898180830F90CF91DF910895DF93CF9389
:100A80000F92CDB7DEB78983ECE5F0E089818083F2
:100A90000F90CF91DF910895DF93CF9300D00F9205
:100AA000CDB7DEB79B838A8319828A819B810097A9
:100AB00019F481E0898306C08A819B819093950017
:100AC0008093940089810F900F900F90CF91DF91C8
:100AD0000895DF93CF9300D00F92CDB7DEB79B83FD
:100AE0008A8319828A819B81009719F481E0898326
:100AF00006C08A819B8190939300809392008981A4
:100B00000F900F900F90CF91DF9108951F920F9249
:100B10000FB60F9211242F933F934F935F936F93D0
:100B20007F938F939F93AF93BF93EF93FF93DF9345
:100B3000CF93CDB7DEB7E0919200F0919300099585
:100B4000CF91DF91FF91EF91BF91AF919F918F91E5
:100B50007F916F915F914F913F912F910F900FBEB9
:100B60000F901F9018951F920F920FB60F9211249D
:100B70002F933F934F935F936F937F938F939F93A5
:100B8000AF93BF93EF93FF93DF93CF93CDB7DEB7D0
:100B9000E0919400F09195000995CF91DF91FF913C
:100BA000EF91BF91AF919F918F917F916F915F91E5
:100BB0004F913F912F910F900FBE0F901F9018955E
:100BC000DF93CF93CDB7DEB7EAE3F0E08FEF80831A
:100BD000E7E3F0E087E08083E4E3F0E087E0808310
:100BE000E1E3F0E01082EBE3F0E01082E8E3F0E014
:100BF0001082E5E3F0E01082E2E3F0E01082CF91B2
:100C0000DF910895DF93CF93CDB7DEB7AFE5B0E0C6
:100C1000EFE5F0E0808180688C93CF91DF910895BB
:100C2000DF93CF93CDB7DEB7AFE5B0E0EFE5F0E00F
:100C300080818F778C93CF91DF910895DF93CF934D
:100C4000CDB7DEB7A5E5B0E0E5E5F0E080818160F5
:100C50008C93A5E5B0E0E5E5F0E080818D7F8C9395
:100C6000ABE5B0E0EBE5F0E0808180648C93CF9160
:100C7000DF910895DF93CF93CDB7DEB7A5E5B0E060
:100C8000E5E5F0E0808184608C93A5E5B0E0E5E5E2
:100C9000F0E08081877F8C93CF91DF910895DF937F
:100CA000CF93CDB7DEB7A4E5B0E0E4E5F0E0808116
:100CB0008F7B8C93CF91DF910895DF93CF93CDB746
:100CC000DEB729970FB6F894DEBF0FBECDBF8A837B
:100CD0006B8319828A81813009F05EC08B81282F55
:100CE00030E039872887888599858130910521F101
:100CF00028853985223031052CF48885998500971F
:100D000061F047C0288539852230310521F1888579
:100D100099858330910571F13CC0A5E5B0E0E5E52A
:100D2000F0E080818E7F8C93A5E5B0E0E5E5F0E012
:100D300080818D7F8C93BAC0A5E5B0E0E5E5F0E059
:100D4000808181608C93A5E5B0E0E5E5F0E08081ED
:100D50008D7F8C93ABC0A5E5B0E0E5E5F0E0808148
:100D60008E7F8C93A5E5B0E0E5E5F0E080818260C0
:100D70008C939CC0A5E5B0E0E5E5F0E08081816062
:100D80008C93A5E5B0E0E5E5F0E0808182608C938E
:100D90008DC081E089838AC08A81823009F05EC07B
:100DA0008B81282F30E03F832E838E819F8181307D
:100DB000910521F12E813F81223031052CF48E8165
:100DC0009F81009761F047C02E813F81223031051D
:100DD00021F18E819F818330910571F13CC0A5E5A1
:100DE000B0E0E5E5F0E080818B7F8C93A5E5B0E095
:100DF000E5E5F0E08081877F8C9358C0A5E5B0E001
:100E0000E5E5F0E0808184608C93A5E5B0E0E5E560
:100E1000F0E08081877F8C9349C0A5E5B0E0E5E5EF
:100E2000F0E080818B7F8C93A5E5B0E0E5E5F0E014
:100E3000808188608C933AC0A5E5B0E0E5E5F0E0FC
:100E4000808184608C93A5E5B0E0E5E5F0E08081E9
:100E500088608C932BC081E0898328C08A8183308D
:100E600019F58B81282F30E03D832C838C819D8167
:100E70008230910531F02C813D812330310549F0DC
:100E800010C0A4E5B0E0E4E5F0E080818F7B8C93B6
:100E90000DC0A4E5B0E0E4E5F0E0808180648C93CF
:100EA00005C081E0898302C081E089838981299618
:100EB0000FB6F894DEBF0FBECDBFCF91DF9108957E
:100EC000DF93CF9300D000D0CDB7DEB78A831982ED
:100ED0008A81282F30E03C832B838B819C81823058
:100EE000910591F02B813C8123303105A9F08B8154
:100EF0009C8181309105C1F4ABE5B0E0EBE5F0E019
:100F0000808180648C9312C0ABE5B0E0EBE5F0E04B
:100F1000808180688C930AC0ABE5B0E0EBE5F0E03F
:100F2000808180628C9302C081E0898389810F90E7
:100F30000F900F900F90CF91DF910895DF93CF9393
:100F400000D000D0CDB7DEB78A8319828A81282FDE
:100F500030E03C832B838B819C818230910591F022
:100F60002B813C8123303105A9F08B819C8181301C
:100F70009105C1F4ABE5B0E0EBE5F0E080818F7B5B
:100F80008C9312C0ABE5B0E0EBE5F0E080818F77A9
:100F90008C930AC0ABE5B0E0EBE5F0E080818F7D9B
:100FA0008C9302C081E0898389810F900F900F900C
:100FB0000F90CF91DF910895DF93CF9300D00F92E0
:100FC000CDB7DEB79B838A8319828A819B81009784
:100FD00039F08A819B81909397008093960002C09C
:100FE00082E0898389810F900F900F90CF91DF91DC
:100FF0000895DF93CF9300D00F92CDB7DEB79B83D8
:101000008A8319828A819B81009739F08A819B812A
:10101000909399008093980002C082E0898389812F
:101020000F900F900F90CF91DF910895DF93CF93A2
:1010300000D00F92CDB7DEB79B838A8319828A8155
:101040009B81009739F08A819B8190939B008093CC
:101050009A0002C082E0898389810F900F900F90DF
:10106000CF91DF9108951F920F920FB60F92112426
:101070002F933F934F935F936F937F938F939F93A0
:10108000AF93BF93EF93FF93DF93CF93CDB7DEB7CB
:101090008091960090919700009729F0E09196003A
:1010A000F09197000995CF91DF91FF91EF91BF915A
:1010B000AF919F918F917F916F915F914F913F91F0
:1010C0002F910F900FBE0F901F9018951F920F92A7
:1010D0000FB60F9211242F933F934F935F936F930B
:1010E0007F938F939F93AF93BF93EF93FF93DF9380
:1010F000CF93CDB7DEB7809198009091990000977B
:1011000029F0E0919800F09199000995CF91DF9135
:10111000FF91EF91BF91AF919F918F917F916F91CF
:101120005F914F913F912F910F900FBE0F901F90A5
:1011300018951F920F920FB60F9211242F933F9381
:101140004F935F936F937F938F939F93AF93BF93CF
:10115000EF93FF93DF93CF93CDB7DEB780919A00E3
:1011600090919B00009729F0E0919A00F0919B00EC
:101170000995CF91DF91FF91EF91BF91AF919F9131
:101180008F917F916F915F914F913F912F910F9030
:101190000FBE0F901F901895DF93CF9300D000D013
:1011A0000F92CDB7DEB78A836B8319828A81843030
:1011B00018F081E0898332C08A81282F30E03D8396
:1011C0002C838C819D8181309105D1F02C813D81D2
:1011D000223031052CF48C819D81009761F01EC076
:1011E0002C813D812230310581F08C819D818330BD
:1011F000910581F013C0EBE3F0E08B8180830EC09A
:10120000E8E3F0E08B81808309C0E5E3F0E08B81C7
:10121000808304C0E2E3F0E08B81808389810F90BA
:101220000F900F900F900F90CF91DF910895DF9363
:10123000CF93CDB7DEB728970FB6F894DEBF0FBEB9
:10124000CDBF8A836B834C8319828A81843018F0E6
:1012500081E08983F0C08B81883018F081E0898338
:10126000EAC08C81813009F06FC08A81282F30E07C
:1012700038872F838F8198858130910549F12F819F
:101280003885223031052CF48F819885009761F0E4
:10129000D2C02F8138852230310571F18F81988538
:1012A00083309105E9F1C7C0ABE3B0E0EBE3F0E0D8
:1012B0008081482F8B81282F30E081E090E0022E42
:1012C00002C0880F991F0A94E2F7842B8C93B3C055
:1012D000A8E3B0E0E8E3F0E08081482F8B81282F7D
:1012E00030E081E090E0022E02C0880F991F0A943E
:1012F000E2F7842B8C939FC0A5E3B0E0E5E3F0E038
:101300008081482F8B81282F30E081E090E0022EF1
:1013100002C0880F991F0A94E2F7842B8C938BC02C
:10132000A2E3B0E0E2E3F0E08081482F8B81282F38
:1013300030E081E090E0022E02C0880F991F0A94ED
:10134000E2F7842B8C9377C08C81882309F073C0DB
:101350008A81282F30E03E832D838D819E818130CC
:10136000910559F12D813E81223031052CF48D817A
:101370009E81009769F05FC02D813E81223031054A
:1013800089F18D819E818330910509F440C053C05D
:10139000ABE3B0E0EBE3F0E08081482F8B81282FB6
:1013A00030E081E090E0022E02C0880F991F0A947D
:1013B000E2F7809584238C933EC0A8E3B0E0E8E395
:1013C000F0E08081482F8B81282F30E081E090E091
:1013D000022E02C0880F991F0A94E2F78095842399
:1013E0008C9329C0A5E3B0E0E5E3F0E08081482FCD
:1013F0008B81282F30E081E090E0022E02C0880F20
:10140000991F0A94E2F7809584238C9314C0A2E379
:10141000B0E0E2E3F0E08081482F8B81282F30E0BC
:1014200081E090E0022E02C0880F991F0A94E2F733
:10143000809584238C93898128960FB6F894DEBF1B
:101440000FBECDBFCF91DF910895DF93CF9300D032
:1014500000D00F92CDB7DEB78A836B8319828A8161
:10146000843018F083E0898332C08A81282F30E0ED
:101470003D832C838C819D8181309105D1F02C811D
:101480003D81223031052CF48C819D81009761F0E3
:101490001EC02C813D812230310581F08C819D81DF
:1014A0008330910581F013C0EAE3F0E08B81808303
:1014B0000EC0E7E3F0E08B81808309C0E4E3F0E055
:1014C0008B81808304C0E1E3F0E08B81808389819C
:1014D0000F900F900F900F900F90CF91DF91089584
:1014E000DF93CF93CDB7DEB728970FB6F894DEBF62
:1014F0000FBECDBF8A836B834C8319828A8184306F
:1015000018F083E08983F0C08B81883018F083E085
:101510008983EAC08C81882309F074C08A81282FCE
:1015200030E038872F838F8198858130910559F17C
:101530002F813885223031052CF48F8198850097D2
:1015400069F0D2C02F8138852230310589F18F8131
:1015500098858330910509F440C0C6C0AAE3B0E085
:10156000EAE3F0E08081482F8B81282F30E081E092
:1015700090E0022E02C0880F991F0A94E2F780952E
:1015800084238C93B1C0A7E3B0E0E7E3F0E080816F
:10159000482F8B81282F30E081E090E0022E02C09E
:1015A000880F991F0A94E2F7809584238C939CC03E
:1015B000A4E3B0E0E4E3F0E08081482F8B81282FA2
:1015C00030E081E090E0022E02C0880F991F0A945B
:1015D000E2F7809584238C9387C0A1E3B0E0E1E338
:1015E000F0E08081482F8B81282F30E081E090E06F
:1015F000022E02C0880F991F0A94E2F78095842377
:101600008C9372C08C81813009F06EC08A81282F42
:1016100030E03E832D838D819E818130910549F19B
:101620002D813E81223031052CF48D819E810097E1
:1016300061F05AC02D813E812230310571F18D81DA
:101640009E8183309105E9F14FC0AAE3B0E0EAE35F
:10165000F0E08081482F8B81282F30E081E090E0FE
:10166000022E02C0880F991F0A94E2F7842B8C93F4
:101670003BC0A7E3B0E0E7E3F0E08081482F8B8137
:10168000282F30E081E090E0022E02C0880F991FE1
:101690000A94E2F7842B8C9327C0A4E3B0E0E4E340
:1016A000F0E08081482F8B81282F30E081E090E0AE
:1016B000022E02C0880F991F0A94E2F7842B8C93A4
:1016C00013C0A1E3B0E0E1E3F0E08081482F8B811B
:1016D000282F30E081E090E0022E02C0880F991F91
:1016E0000A94E2F7842B8C93898128960FB6F8949C
:1016F000DEBF0FBECDBFCF91DF910895DF93CF93B3
:10170000CDB7DEB727970FB6F894DEBF0FBECDBFBB
:101710008A836B835D834C8319828A81843018F0BD
:1017200082E0898376C08B81883018F082E08983DB
:1017300070C08A81282F30E03F832E834E815F81E5
:101740004130510559F18E819F818230910534F4E9
:101750002E813F812115310569F05BC04E815F818B
:101760004230510579F18E819F818330910509F4D2
:101770003DC04FC0E9E3F0E08081282F30E08B814D
:10178000882F90E0A90102C0559547958A95E2F708
:10179000CA018170EC81FD8180833BC0E6E3F0E00B
:1017A0008081282F30E08B81882F90E0A90102C032
:1017B000559547958A95E2F7CA018170EC81FD81C4
:1017C000808327C0E3E3F0E08081282F30E08B8125
:1017D000882F90E0A90102C0559547958A95E2F7B8
:1017E000CA018170EC81FD81808313C0E0E3F0E0E9
:1017F0008081282F30E08B81882F90E0A90102C0E2
:10180000559547958A95E2F7CA018170EC81FD8173
:101810008083898127960FB6F894DEBF0FBECDBFB7
:10182000CF91DF910895DF93CF9300D000D000D007
:10183000CDB7DEB78A837C836B8319828A8184303B
:1018400018F081E089833AC08A81282F30E03E83F6
:101850002D838D819E8181309105E1F02D813E8126
:10186000223031052CF48D819E81009761F026C0D5
:101870002D813E8122303105A1F08D819E81833002
:101880009105B1F01BC0E9E3F0E08081EB81FC81C0
:10189000808314C0E6E3F0E08081EB81FC818083EB
:1018A0000DC0E3E3F0E08081EB81FC81808306C022
:1018B000E0E3F0E08081EB81FC81808389812696E2
:1018C0000FB6F894DEBF0FBECDBFCF91DF91089564
:1018D000DF93CF93CDB7DEB7E6E2F0E08081887F7B
:1018E00083608083E7E2F0E080818F73806480838F
:1018F000E7E2F0E080818F7D8083E6E2F0E08081A6
:1019000080628083E0E5F0E080818F718068808371
:10191000E6E2F0E0808180688083CF91DF910895D6
:10192000DF93CF93CDB7DEB728970FB6F894DEBF1D
:101930000FBECDBF8E8378876F831D8219821A8276
:101940001B821C828F819885009719F481E08D831A
:101950004AC08E81883018F082E08D8344C0E7E26F
:10196000F0E08E818F71982F9F718081807E892B0E
:1019700080830BC089819A81AB81BC810196A11DB6
:10198000B11D89839A83AB83BC83E6E2F0E080815A
:101990008071882361F489819A81AB81BC81843F05
:1019A00021E0920720E0A20720E0B20718F3898126
:1019B0009A81AB81BC81843F21E0920720E0A2079D
:1019C00020E0B20719F483E08D830DC0E6E2F0E079
:1019D000808180618083E4E2F0E080819181EF8109
:1019E000F885918380838D8128960FB6F894DEBFA9
:1019F0000FBECDBFCF91DF910895DF93CF9300D07D
:101A000000D000D0CDB7DEB78A837C836B835E8342
:101A10004D8319828D819E81009719F481E089831D
:101A20001EC08A81883018F082E0898318C08B81BB
:101A30009C81009719F481E0898311C08B819C817E
:101A400090939D0080939C008D819E8190939F0038
:101A500080939E00E6E2F0E0808188608083898147
:101A600026960FB6F894DEBF0FBECDBFCF91DF91A3
:101A700008951F920F920FB60F9211242F933F9348
:101A80004F935F936F937F938F939F93AF93BF9386
:101A9000EF93FF93DF93CF93CDB7DEB7A0919E0076
:101AA000B0919F00E4E2F0E0808191818D939C935E
:101AB000E0919C00F0919D000995CF91DF91FF91FD
:101AC000EF91BF91AF919F918F917F916F915F91B6
:101AD0004F913F912F910F900FBE0F901F9018952F
:101AE000DF93CF93CDB7DEB72C970FB6F894DEBF58
:101AF0000FBECDBF9C878B8780EA9FE09E838D833E
:101B00002B853C858D819E81AC01249FC001259F42
:101B1000900D349F900D1124CC01A0E0B0E089839A
:101B20009A83AB83BC831F82188619861A860BC0E2
:101B30008F819885A985BA850196A11DB11D8F83D6
:101B40009887A987BA872F81388549855A858981E1
:101B50009A81AB81BC81281739074A075B0740F39C
:101B60002C960FB6F894DEBF0FBECDBFCF91DF919C
:101B70000895DF93CF930F92CDB7DEB7898381E0CD
:101B800060E040E00E94170981E061E040E00E94CF
:101B9000170980E069810E94CC0881E062E041E0A1
:101BA0000E94170982E090E00E94700D81E062E0DF
:101BB00040E00E9417090F90CF91DF910895DF93C5
:101BC000CF93CDB7DEB788E290E00E94700D88E336
:101BD0000E94B90D8CE00E94B90D81E00E94B90D00
:101BE000CF91DF910895DF93CF930F92CDB7DEB7FA
:101BF000898381E060E041E00E94170981E061E0B3
:101C000040E00E94170980E069810E94CC0881E0D1
:101C100062E041E00E94170982E090E00E94700DAE
:101C200081E062E040E00E9417090F90CF91DF91C0
:101C30000895DF93CF9300D00F92CDB7DEB79B838B
:101C40008A8319820EC08981282F30E08A819B8186
:101C5000FC01E20FF31F80810E94F30D89818F5FE9
:101C600089838981282F30E08A819B81FC01E20FE2
:101C7000F31F8081882339F70F900F900F90CF9139
:101C8000DF910895DF93CF9300D00F92CDB7DEB7E9
:101C90008A836B838A81882319F48B81898306C0A8
:101CA0008A81813019F48B81805C89838981806885
:101CB0000E94B90D0F900F900F90CF91DF91089572
:101CC0000F931F93DF93CF93CDB7DEB760970FB617
:101CD000F894DEBF0FBECDBF6D877E878F87988B50
:101CE0008D859E85AF85B889BB2394F48DE20E94D3
:101CF000F30D8D859E85AF85B889B095A09590959B
:101D000081959F4FAF4FBF4F8D879E87AF87B88B11
:101D10008D859E85AF85B8890097A105B10521F411
:101D200080E30E94F30D50C01A822EC08A81082FD2
:101D300010E08D859E85AF85B8892AE030E040E0CF
:101D400050E0BC01CD010E94890FDC01CB01282F9E
:101D5000205DCE010396FC01E00FF11F20838A81F4
:101D60008F5F8A838D859E85AF85B8892AE030E0B4
:101D700040E050E0BC01CD010E94890FDA01C901A9
:101D80008D879E87AF87B88B8D859E85AF85B889F7
:101D9000181619061A061B064CF28A81898311C08F
:101DA0008981882F90E09C0121503040CE0103961C
:101DB000FC01E20FF31F80810E94F30D89818150A5
:101DC00089838981882361F760960FB6F894DEBF16
:101DD0000FBECDBFCF91DF911F910F910895DF937B
:101DE000CF93CDB7DEB727970FB6F894DEBF0FBEFF
:101DF000CDBF9C838B836D834E832F831A828D810D
:101E0000882F90E0880F991F880F991F880F991FBE
:101E10008A838A8180640E94B90D19820EC08981EB
:101E2000282F30E08B819C81FC01E20FF31F808121
:101E30000E94F30D89818F5F89838981883078F3CF
:101E40008E816F810E94420E8D810E94F30D279634
:101E50000FB6F894DEBF0FBECDBFCF91DF910895CE
:101E6000DF93CF93CDB7DEB78091A0009091A10012
:101E700001969093A1008093A000CF91DF910895E7
:101E8000DF93CF93CDB7DEB70E94E0050E94DF0D50
:101E90000E9402060E941A03CF91DF910895DF93FA
:101EA000CF93CDB7DEB782E19AE70E94410380E38A
:101EB0009FE00E94940380E060E00E94420E8091C7
:101EC000A0009091A100AA2797FDA095BA2FBC0170
:101ED000CD010E94600EEFCFDF93CF93CDB7DEB779
:101EE0000E94400F0E944F0FFDCFAA1BBB1B51E168
:101EF00007C0AA1FBB1FA617B70710F0A61BB70B7A
:101F0000881F991F5A95A9F780959095BC01CD011E
:101F1000089597FB092E05260ED057FD04D014D046
:101F20000AD0001C38F450954095309521953F4FCC
:101F30004F4F5F4F0895F6F7909580957095619596
:101F40007F4F8F4F9F4F0895A1E21A2EAA1BBB1BF4
:101F5000FD010DC0AA1FBB1FEE1FFF1FA217B30775
:101F6000E407F50720F0A21BB30BE40BF50B661F8B
:101F7000771F881F991F1A9469F76095709580954F
:101F800090959B01AC01BD01CF010895CF93DF93E4
:101F9000BC018230910510F462E070E0A091A400D1
:101FA000B091A500ED01E0E0F0E040E050E021C09C
:101FB000888199818617970769F48A819B81309778
:101FC00019F09383828304C09093A5008093A400AA
:101FD000FE0134C06817790738F44115510519F02E
:101FE0008417950708F4AC01FE018A819B819C014E
:101FF000E9012097E9F641155105A9F1CA01861BAF
:10200000970B049708F4BA01E0E0F0E02AC08D9144
:102010009C91119784179507F9F46417750781F45B
:1020200012968D919C911397309719F09383828328
:1020300004C09093A5008093A400FD0132964FC088
:10204000CA01861B970BFD01E80FF91F619371937D
:1020500002978D939C9343C0FD01828193819C01E3
:10206000D9011097A1F68091A2009091A300892B2D
:1020700041F480918200909183009093A30080931B
:10208000A20040918400509185004115510541F412
:102090004DB75EB78091800090918100481B590B2D
:1020A0002091A2003091A30024173507B0F4CA0193
:1020B000821B930B8617970780F0AB014E5F5F4F33
:1020C0008417950750F0420F531F5093A30040937D
:1020D000A200F9016193719302C0E0E0F0E0CF014A
:1020E000DF91CF910895CF93DF93009709F450C00B
:1020F000EC0122971B821A82A091A400B091A50046
:10210000109709F140E050E0AC17BD0708F1BB8320
:10211000AA83FE0121913191E20FF31FAE17BF0791
:1021200079F48D919C911197280F391F2E5F3F4FA5
:102130003983288312968D919C9113979B838A8370
:102140004115510571F4D093A500C093A40020C09F
:1021500012968D919C911397AD01009711F0DC01BF
:10216000D3CFFA01D383C28321913191E20FF31FC0
:10217000CE17DF0769F488819981280F391F2E5FF8
:102180003F4FFA01318320838A819B81938382832D
:10219000DF91CF910895A0E0B0E0E1EDF0E10C9483
:1021A0006D13FE013596619171918091A800909117
:1021B000A900AF010E94E0102096E2E00C94891380
:1021C000ABE0B0E0E6EEF0E10C945D133C012B01D6
:1021D0005A01FC0117821682838181FD03C06FEFD3
:1021E0007FEFC6C19AE0892E1E010894211C311C84
:1021F000F3012381F20123FD859123FF81912F01BA
:10220000882309F4B2C1853239F423FD859123FF77
:1022100081912F01853229F490E0B3010E94D312FD
:10222000E7CF982FFF24EE249924FFE1FF15D0F08B
:102230009B3269F09C3228F4903259F0933291F439
:102240000EC09D3249F0903369F441E024C052E061
:10225000F52A84E0F82A28C098E0F92A25C0E0E1B0
:10226000FE2A22C0F7FC29C0892F80538A3070F4DF
:10227000F6FE05C0989C902C1124980E15C0E89C81
:10228000E02C1124E80EF0E2FF2A0EC09E3229F461
:10229000F6FC6BC140E4F42A07C09C3619F450E800
:1022A000F52A02C0983649F4F20123FD959123FFE7
:1022B00091912F01992309F0B8CF892F855483304C
:1022C00018F08052833038F444E050E0A40EB51E7C
:1022D0005FE359830FC0933631F0933779F093352C
:1022E00009F056C020C0F5018081898342E050E0AA
:1022F000A40EB51E610101E010E012C0F501C0801E
:10230000D180F6FC03C06FEF7FEF02C0692D70E053
:1023100042E050E0A40EB51EC6010E94C8128C0116
:102320005FE7F52214C0F501C080D180F6FC03C040
:102330006FEF7FEF02C0692D70E042E050E0A40E25
:10234000B51EC6010E94BD128C0150E8F52AF3FEAD
:1023500007C01AC080E290E0B3010E94D312EA9451
:102360008E2D90E008171907A8F30EC0F601F7FCB0
:102370008591F7FE81916F0190E0B3010E94D31225
:10238000E110EA94015010400115110579F7EAC0F7
:10239000943611F0993669F5F7FE08C0F5012081F1
:1023A00031814281538184E090E00AC0F50180814F
:1023B00091819C01442737FD4095542F82E090E0A5
:1023C000A80EB91E9FE6F92257FF09C05095409507
:1023D000309521953F4F4F4F5F4FE0E8FE2ACA01ED
:1023E000B901A1012AE030E00E94FF12D82ED218D4
:1023F00040C0953729F41F2D1F7E2AE030E01DC014
:102400001F2D197F9F3661F0903720F4983509F021
:10241000ACC00FC0903739F0983709F0A6C004C09F
:1024200028E030E00AC0106114FD146020E130E0C3
:1024300004C014FD166020E132E017FF08C0F5016A
:10244000608171818281938144E050E008C0F50190
:1024500080819181BC0180E090E042E050E0A40ED8
:10246000B51EA1010E94FF12D82ED2188FE7F82EB8
:10247000F122F6FE0BC05EEFF522D91438F4F4FE1B
:1024800007C0F2FC05C08FEEF82202C01D2D01C06E
:10249000192DF4FE0DC0FE01ED0DF11D808180337C
:1024A00019F499EEF92208C01F5FF2FE05C003C0BF
:1024B0008F2D867809F01F5F0F2DF3FC14C0F0FEFE
:1024C0000FC01E1510F09D2C0BC09D2C9E0C911A58
:1024D0001E2D06C080E290E0B3010E94D3121F5F60
:1024E0001E15C0F304C01E1510F4E11A01C0EE243D
:1024F00004FF0FC080E390E0B3010E94D31202FFFB
:102500001DC001FD03C088E790E00EC088E590E0A3
:102510000BC0802F867891F001FF02C08BE201C0D2
:1025200080E2F7FC8DE290E0B3010E94D31206C076
:1025300080E390E0B3010E94D3129A94D914C0F3BF
:10254000DA94F101ED0DF11D808190E0B3010E945C
:10255000D312DD20A9F706C080E290E0B3010E940B
:10256000D312EA94EE20C1F743CEF301668177815E
:10257000CB012B96E2E10C947913FC01059061509C
:1025800070400110D8F7809590958E0F9F1F089589
:10259000FC016150704001900110D8F78095909532
:1025A0008E0F9F1F08950F931F93CF93DF938C017E
:1025B000EB018B8181FF1BC082FF0DC02E813F810B
:1025C0008C819D812817390764F4E881F981019392
:1025D000F983E88306C0E885F985802F0995892B62
:1025E00031F48E819F8101969F838E8302C00FEF0D
:1025F0001FEFC801DF91CF911F910F910895FA014C
:10260000AA27283051F1203181F1E8946F936E7F31
:102610006E5F7F4F8F4F9F4FAF4FB1E03ED0B4E022
:102620003CD0670F781F891F9A1FA11D680F791F63
:102630008A1F911DA11D6A0F711D811D911DA11D74
:1026400020D009F468943F912AE0269F1124301984
:10265000305D3193DEF6CF010895462F4770405D1F
:102660004193B3E00FD0C9F7F6CF462F4F70405DCE
:102670004A3318F0495D31FD4052419302D0A9F729
:10268000EACFB4E0A6959795879577956795BA9523
:10269000C9F700976105710508959B01AC010A2EE9
:1026A00006945795479537952795BA95C9F7620FC0
:1026B000731F841F951FA01D08952F923F924F9264
:1026C0005F926F927F928F929F92AF92BF92CF92C2
:1026D000DF92EF92FF920F931F93CF93DF93CDB7CB
:1026E000DEB7CA1BDB0B0FB6F894DEBF0FBECDBF43
:1026F00009942A88398848885F846E847D848C8414
:102700009B84AA84B984C884DF80EE80FD800C811C
:102710001B81AA81B981CE0FD11D0FB6F894DEBFFF
:0C2720000FBECDBFED010895F894FFCF6F
:10272C00456C656D656E7420616464726573733A93
:10273C002025702C2076616C75653A2025640A0082
:06274C002000AC000000BB
:00000001FF
