:100000000C942A000C94A8110C94DB110C940E1281
:100010000C94350C0C94620C0C947D0D0C94AF0D6B
:100020000C94DC0D0C94090E0C94FB0E0C94280F10
:100030000C9447000C9447000C9447000C94470024
:100040000C94AE160C9447000C9447000C94470097
:100050000C94470011241FBECFE5D8E0DEBFCDBF12
:1000600013E0A0E6B0E0E6E4F8E402C005900D92EB
:10007000AC35B107D9F713E0ACE5B3E001C01D9290
:10008000AA3BB107E1F70E948D1F0C9421240C9428
:100090000000EF92FF920F931F937B018C0120E0F1
:1000A00030E040E05FE40E94C50388238CF0C80183
:1000B000B70120E030E040E05FE40E94C1010E940F
:1000C00083049B01AC01205030404040504806C0A2
:1000D000C801B7010E9483049B01AC01B901CA01A8
:1000E0001F910F91FF90EF900895A0E0B0E0EBE733
:1000F000F0E00C941920DC012B01FA019C91923064
:1001000008F439C1EB018881823008F433C194309E
:1001100069F4843009F02FC111969C91119789815F
:10012000981709F428C1A3E8B0E025C1843009F488
:1001300021C18230A9F4923009F01DC19A01AD01AC
:1001400088E0EA010990AE01E90109929E0181501F
:10015000C1F7E201898111969C918923818308C1AD
:10016000923009F407C112962D903C901397EB0141
:100170008A819B811496AD90BD90CD90DC901797AD
:10018000EC80FD800E811F819101281B390BB90184
:1001900037FF04C066277727621B730B6032710537
:1001A0000CF061C0121613066CF537014801062EDB
:1001B00004C096948794779467940A94D2F721E0C8
:1001C00030E040E050E004C0220F331F441F551FB1
:1001D0006A95D2F721503040404050402E213F21B7
:1001E00040235123211531054105510521F021E01E
:1001F00030E040E050E079018A01E628F72808293C
:1002000019293CC0232BD1F1260E371E350146019A
:10021000062E04C096948794779467940A94D2F734
:1002200021E030E040E050E004C0220F331F441FC3
:10023000551F6A95D2F721503040404050402A2146
:100240003B214C215D21211531054105510521F04E
:1002500021E030E040E050E059016A01A628B728CB
:10026000C828D9280BC0821593052CF01C01AA249C
:10027000BB24650103C0EE24FF24870111969C91E5
:10028000D20111968C91981709F445C0992339F041
:10029000A80197012A193B094C095D0906C0A6016E
:1002A00095012E193F09400B510B57FD08C01182D3
:1002B0003382228224833583468357831DC081E0A5
:1002C00081833382228288279927DC01821B930B4A
:1002D000A40BB50B84839583A683B7830DC0220F2F
:1002E000331F441F551F24833583468357838281E0
:1002F000938101979383828324813581468157813D
:10030000DA01C9010197A109B1098F5F9F4FAF4F72
:10031000BF4328F30BC0918333822282EA0CFB1C7B
:100320000C1D1D1DE482F5820683178383E0808304
:10033000248135814681578157FF1AC0C901AA27F8
:1003400097FDA095BA2F81709070A070B0705695EF
:10035000479537952795822B932BA42BB52B848318
:100360009583A683B7838281938101969383828349
:10037000DF0101C0D201CD01CDB7DEB7E2E10C94BF
:100380003520A0E2B0E0E7ECF1E00C942520698391
:100390007A838B839C832D833E834F835887E9E048
:1003A000EE2EF12CEC0EFD1ECE010196B7010E943F
:1003B00074068E010F5E1F4FCE010596B8010E9494
:1003C00074068A8991E089278A8BC701B801AE013A
:1003D000475E5F4F0E9475000E949F05A096E6E071
:1003E0000C944120A0E2B0E0E8EFF1E00C9425206D
:1003F00069837A838B839C832D833E834F835887C5
:10040000F9E0EF2EF12CEC0EFD1ECE010196B701A6
:100410000E9474068E010F5E1F4FCE010596B80133
:100420000E947406C701B801AE01475E5F4F0E948B
:1004300075000E949F05A096E6E00C944120A0E282
:10044000B0E0E5E2F2E00C94192069837A838B83B3
:100450009C832D833E834F835887CE010196BE0136
:10046000675F7F4F0E947406CE010596BE016F5EE6
:100470007F4F0E9474069985923088F08989823076
:10048000C8F0943019F4823051F404C0843029F457
:10049000923081F483E890E0C6C0923049F420E0C5
:1004A0009A858A89981321E02A87CE010996BBC0D4
:1004B000823049F420E09A858A89981321E02A8BBA
:1004C000CE014196B0C02D843E844F8458886D88FB
:1004D0007E888F88988CEE24FF248701AA24BB2471
:1004E000650140E050E060E070E0E0E0F0E0C10174
:1004F00081709070892BE9F0E60CF71C081D191D1E
:100500009A01AB012A0D3B1D4C1D5D1D80E090E062
:10051000A0E0B0E0E614F7040805190520F481E036
:1005200090E0A0E0B0E0BA01A901480F591F6A1F8E
:100530007B1FAA0CBB1CCC1CDD1C97FE08C081E0F5
:1005400090E0A0E0B0E0A82AB92ACA2ADB2A3196B6
:10055000E032F10549F0660C771C881C991C569412
:10056000479437942794C3CFFA85EA892B893C892D
:100570008B859C85280F391F2E5F3F4F17C0CA01FE
:1005800081709070892B61F016950795F794E79428
:1005900080E090E0A0E0B0E8E82AF92A0A2B1B2BC3
:1005A00076956795579547952F5F3F4F77FDE7CF36
:1005B0000CC0440F551F661F771F17FD4160EE0CDE
:1005C000FF1C001F111F21503040403090E05907A0
:1005D00090E0690790E4790760F32B8F3C8FDB0193
:1005E000CA018F779070A070B07080349105A1051A
:1005F000B10561F447FD0AC0E114F10401051105DC
:1006000029F0405C5F4F6F4F7F4F40781A8EFE1786
:1006100011F081E08A8F4D8F5E8F6F8F78A383E01A
:10062000898FCE0149960E949F05A096E2E10C9425
:100630003520A8E1B0E0EFE1F3E00C9421206983DC
:100640007A838B839C832D833E834F835887B9E0C5
:10065000EB2EF12CEC0EFD1ECE010196B7010E948F
:1006600074068E010F5E1F4FCE010596B8010E94E1
:1006700074062985223008F47EC03989323010F49E
:10068000B8017CC08A859A8989278A87243011F02D
:10069000223031F4231709F06EC063E870E06EC0B9
:1006A000343039F41D861E861F86188A1C861B86E8
:1006B00004C0323021F484E08987B7015FC02B8504
:1006C0003C858B899C89281B390B3C872B87ED84C3
:1006D000FE840F851889AD88BE88CF88D88CEA142F
:1006E000FB040C051D0540F4EE0CFF1C001F111F40
:1006F000215030403C872B8720E030E040E050E044
:1007000080E090E0A0E0B0E460E070E0EA14FB0478
:100710000C051D0540F0282B392B4A2B5B2BEA18C2
:10072000FB080C091D09B695A79597958795EE0CC2
:10073000FF1C001F111F6F5F7F4F6F31710531F775
:10074000DA01C9018F779070A070B0708034910584
:10075000A105B10561F427FD0AC0E114F10401050A
:10076000110529F0205C3F4F4F4F5F4F20782D87B8
:100770003E874F87588BBE01675F7F4FCB010E943A
:100780009F056896EAE00C943D20A8E1B0E0EBEC10
:10079000F3E00C94252069837A838B839C832D83DB
:1007A0003E834F83588789E0E82EF12CEC0EFD1E26
:1007B000CE010196B7010E9474068E010F5E1F4F95
:1007C000CE010596B8010E9474068985823040F0FA
:1007D0008989823028F0C701B8010E94EC0601C067
:1007E0008FEF6896E6E00C944120A8E1B0E0EBEFD3
:1007F000F3E00C94252069837A838B839C832D837B
:100800003E834F83588789E0E82EF12CEC0EFD1EC5
:10081000CE010196B7010E9474068E010F5E1F4F34
:10082000CE010596B8010E9474068985823040F099
:100830008989823028F0C701B8010E94EC0601C006
:1008400081E06896E6E00C944120A8E0B0E0EBE29D
:10085000F4E00C9422209B01AC0183E08983DA014F
:10086000C9018827B7FD83959927AA27BB27B82EEA
:10087000211531054105510519F482E089833AC0FB
:100880008823A9F0203080E0380780E0480780E81E
:10089000580729F460E070E080E09FEC30C0EE245F
:1008A000FF248701E21AF30A040B150B02C0790139
:1008B0008A018EE1C82ED12CDC82CB82ED82FE82B1
:1008C0000F831887C801B7010E94500501971816B9
:1008D000190684F4082E04C0EE0CFF1C001F111F23
:1008E0000A94D2F7ED82FE820F831887C81AD90ABC
:1008F000DC82CB82BA82CE0101960E949F052896A7
:10090000E9E00C943E20ACE0B0E0E9E8F4E00C94BF
:10091000292069837A838B839C83CE010196BE0153
:100920006B5F7F4F0E9474068D81823061F182304F
:1009300050F1843021F48E81882351F12EC02F8113
:10094000388537FD20C06E812F3131051CF06623BC
:10095000F9F023C08EE190E0821B930B29853A8544
:100960004B855C8504C056954795379527958A95A4
:10097000D2F76623B1F050954095309521953F4FC1
:100980004F4F5F4F0EC020E030E040E050E009C024
:100990002FEF3FEF4FEF5FE704C020E030E040E093
:1009A00050E8B901CA012C96E2E00C944520A8E079
:1009B000B0E0EDEDF4E00C9421207B018C01611599
:1009C00071058105910519F482E0898360C083E097
:1009D00089838EE1C82ED12CDC82CB82ED82FE820F
:1009E0000F831887C801B7010E945005FC01319799
:1009F000F7FF3BC0222733272E1B3F0B570168010F
:100A0000022E04C0D694C794B794A7940A94D2F740
:100A100040E050E060E070E081E090E0A0E0B0E015
:100A200004C0880F991FAA1FBB1F2A95D2F70197F0
:100A3000A109B1098E219F21A023B1230097A1050F
:100A4000B10521F041E050E060E070E04A295B2907
:100A50006C297D294D835E836F8378878EE190E0DA
:100A60008E1B9F0B9C838B8312C0309781F00E2EC0
:100A700004C0EE0CFF1C001F111F0A94D2F7ED8278
:100A8000FE820F831887CE1ADF0ADC82CB821A829D
:100A9000CE0101960E949F052896EAE00C943D2025
:100AA000EF92FF920F931F937B018C0180E0E81679
:100AB00080E0F80681E0080780E0180788F48FEFEF
:100AC000E816F1040105110531F028F088E090E006
:100AD000A0E0B0E017C080E090E0A0E0B0E012C07D
:100AE00080E0E81680E0F80680E0080781E018075B
:100AF00028F088E190E0A0E0B0E004C080E190E060
:100B0000A0E0B0E020E230E040E050E0281B390BEC
:100B10004A0B5B0B04C016950795F794E7948A95EA
:100B2000D2F7F701E557FF4F8081281B31094109B2
:100B30005109C9011F910F91FF90EF900895DF9225
:100B4000EF92FF920F931F93FC01E480F5800681E2
:100B50001781D1808081823048F480E090E0A0E16C
:100B6000B0E0E82AF92A0A2B1B2BA5C0843009F42F
:100B70009FC0823021F4EE24FF24870105C0E114D8
:100B8000F1040105110519F4E0E0F0E096C062817E
:100B900073819FEF623879070CF05BC022E83FEF6A
:100BA000261B370B2A3131052CF020E030E040E0E5
:100BB00050E02AC0B801A701022E04C076956795BF
:100BC000579547950A94D2F781E090E0A0E0B0E015
:100BD00004C0880F991FAA1FBB1F2A95D2F701973F
:100BE000A109B1098E219F21A023B1230097A1055E
:100BF000B10521F081E090E0A0E0B0E09A01AB0106
:100C0000282B392B4A2B5B2BDA01C9018F77907087
:100C1000A070B07080349105A105B10539F427FFAB
:100C200009C0205C3F4F4F4F5F4F04C0215C3F4FD6
:100C30004F4F5F4FE0E0F0E02030A0E03A07A0E047
:100C40004A07A0E45A0710F0E1E0F0E079018A01D8
:100C500027C06038710564F5FB01E158FF4FD801EA
:100C6000C7018F779070A070B07080349105A10596
:100C7000B10539F4E7FE0DC080E490E0A0E0B0E0FB
:100C800004C08FE390E0A0E0B0E0E80EF91E0A1F78
:100C90001B1F17FF05C016950795F794E79431962B
:100CA00087E016950795F794E7948A95D1F705C0E4
:100CB000EE24FF248701EFEFF0E06E2F67956627A3
:100CC0006795902F9F77D794DD24D7948E2F8695A4
:100CD000492F462B582F5D29B701CA011F910F914B
:100CE000FF90EF90DF900895FC01DB01408151817E
:100CF0002281622F6F7770E0221F2227221F9381AB
:100D0000892F880F822B282F30E0991F9927991F50
:100D100011969C93119721153105A9F5411551059F
:100D20006105710511F482E037C082E89FEF1396E8
:100D30009C938E9312979A01AB0167E0220F331FA9
:100D4000441F551F6A95D1F783E08C930DC0220F85
:100D5000331F441F551F12968D919C911397019735
:100D600013969C938E931297203080E0380780E092
:100D7000480780E4580758F314962D933D934D93FC
:100D80005C93179708952F3F310579F4411551056C
:100D90006105710519F484E08C93089564FF03C024
:100DA00081E08C9312C01C9210C02F5730401396D4
:100DB0003C932E93129783E08C9387E0440F551F4A
:100DC000661F771F8A95D1F7706414964D935D93D3
:100DD0006D937C93179708951F93DC01FB019C9101
:100DE000923008F447C08081823008F443C09430C8
:100DF00051F411961C91843099F58181682F70E02F
:100E0000611B71093FC0843021F0923031F482308F
:100E1000B9F18181882389F12DC011961C91119718
:100E20008230F1F081811817D9F412962D913C91FE
:100E30001397828193818217930794F028173907BB
:100E4000BCF014968D919D910D90BC91A02D2481A4
:100E5000358146815781281739074A075B0718F4FF
:100E6000112341F00AC082179307A407B50740F485
:100E7000112319F061E070E005C06FEF7FEF02C051
:100E800060E070E0CB011F910895DF93CF9300D015
:100E9000CDB7DEB79A83898380E00F900F90CF9112
:100EA000DF910895DF93CF9300D00F92CDB7DEB7D7
:100EB0009A838983E981FA81808191811B820097DD
:100EC00011F481E08B838B810F900F900F90CF9165
:100ED000DF910895DF93CF9300D00F92CDB7DEB7A7
:100EE0009B838A8319828A819B81009761F0EA81C2
:100EF000FB811282138214821582EA81FB811182A6
:100F0000108281E0898389810F900F900F90CF919B
:100F1000DF910895DF93CF93CDB7DEB727970FB654
:100F2000F894DEBF0FBECDBF9D838C837F836E831D
:100F30001B8284E090E00E9450209A8389838C81F8
:100F40009D81009759F18C819D810E9445078823DE
:100F500029F5E981FA818E819F8193838283EC81D7
:100F6000FD8180819181E981FA8191838083EC8187
:100F7000FD8189819A8191838083EC81FD818281C9
:100F80009381A481B5810196A11DB11DEC81FD81E4
:100F900082839383A483B58381E08B838B8127969F
:100FA0000FB6F894DEBF0FBECDBFCF91DF9108958D
:100FB000DF93CF93CDB7DEB727970FB6F894DEBF98
:100FC0000FBECDBF9D838C837F836E831B821A826D
:100FD00019828C819D810097D9F18E819F81009724
:100FE000B9F18C819D810E945207882389F5EC819B
:100FF000FD810190F081E02D82819381EE81FF815E
:1010000091838083EC81FD81808191819B838A83A0
:10101000EC81FD810190F081E02D80819181EC8156
:10102000FD81918380838A819B810E94FD20EC81D8
:10103000FD8182819381A481B5810197A109B109C4
:10104000EC81FD8182839383A483B58381E08983CE
:10105000898127960FB6F894DEBF0FBECDBFCF9122
:10106000DF910895DF93CF9300D000D00F92CDB7DA
:10107000DEB79D838C831B821A8219828C819D81AD
:10108000009799F1EC81FD81808191819A83898318
:1010900026C0E981FA8140815181E981FA8122816A
:1010A000338100D000D000D0EDB7FEB7319680E696
:1010B00090E09183808353834283358324830E940D
:1010C0005E218DB79EB706960FB6F8949EBF0FBEF1
:1010D0008DBFE981FA81808191819A838983898199
:1010E0009A810097B1F681E08B838B810F900F90EE
:1010F0000F900F900F90CF91DF910895DF93CF93D2
:1011000000D000D00F92CDB7DEB79D838C831B82B9
:101110001A821982EC81FD81808191819A83898371
:101120008C819D810097F9F012C0E981FA8180815C
:1011300091819A838983EC81FD81808191810E94D4
:10114000FD20EC81FD8189819A8191838083898151
:101150009A81009751F7EC81FD81128213821482EB
:10116000158281E08B838B810F900F900F900F90F1
:101170000F90CF91DF910895DF93CF9300D000D0EF
:101180000F92CDB7DEB79B838A837D836C831982F0
:101190008A819B81009761F0EA81FB818281938142
:1011A000A481B581EC81FD819183808381E0898375
:1011B00089810F900F900F900F900F90CF91DF913A
:1011C0000895DF93CF9300D0CDB7DEB79A8389839C
:1011D000E981FA811282E981FA811082E981FA813A
:1011E0008FEF81830F900F90CF91DF910895DF9360
:1011F000CF9300D00F92CDB7DEB79B838A83EA816D
:10120000FB818281882311F4198202C082E08983E4
:1012100089810F900F900F90CF91DF910895DF9308
:10122000CF9300D00F92CDB7DEB79A838983E9813F
:10123000FA8182811B828A3011F481E08B838B8159
:101240000F900F900F90CF91DF910895DF93CF9380
:1012500000D000D000D0CDB7DEB79A8389834B830E
:101260005C836D837E83E981FA818181992787FD83
:10127000909501962AE030E0B9010E94C91FE981EA
:10128000FA818183E981FA818181992787FD90958F
:1012900029813A81880F991F880F991F820F931F08
:1012A000FC0133968B819C81AD81BE8180839183CB
:1012B000A283B383E981FA8182818F5FE981FA8118
:1012C000828326960FB6F894DEBF0FBECDBFCF91B6
:1012D000DF910895DF93CF9300D000D0CDB7DEB774
:1012E0009A8389837C836B83E981FA818081992742
:1012F00087FD909529813A81880F991F880F991F42
:10130000820F931FFC01339680819181A281B3816A
:10131000EB81FC8180839183A283B383E981FA818D
:101320008081992787FD909501962AE030E0B901E8
:101330000E94C91FE981FA818083E981FA81828153
:101340008150E981FA8182830F900F900F900F9066
:10135000CF91DF910895DF93CF9300D0CDB7DEB763
:101360009A838983E981FA8182810F900F90CF91CE
:10137000DF910895DF93CF9300D0CDB7DEB79A8386
:101380008983E981FA811282E981FA818FEF818371
:10139000E981FA8110820F900F90CF91DF9108952B
:1013A000DF93CF9300D000D000D0CDB7DEB79C83C1
:1013B0008B837E836D831A82EB81FC81808189839C
:1013C00025C08981992787FD90952B813C81880FC5
:1013D000991F880F991F820F931FFC0133968081FC
:1013E0009181A281B381ED81FE81BC01CD0109957E
:1013F0008981992787FD909501962AE030E0B9010F
:101400000E94C91F89838A818F5F8A83EB81FC8157
:1014100092818A818917A8F226960FB6F894DEBFCA
:101420000FBECDBFCF91DF910895DF93CF93CDB79E
:10143000DEB7E9E2F0E086E88083E9E2F0E083E30A
:101440008083AAE2B0E0EAE2F0E0808180618C93E0
:10145000AAE2B0E0EAE2F0E0808188608C93CF916C
:10146000DF910895DF93CF930F92CDB7DEB78983D5
:10147000EBE2F0E08081829586958770882F90E07E
:10148000817090700097A1F3ECE2F0E08981808395
:101490000F90CF91DF910895DF93CF93CDB7DEB753
:1014A000EBE2F0E080818823DCF7ECE2F0E0808181
:1014B000CF91DF910895DF93CF9300D00F92CDB7F6
:1014C000DEB79B838A8319820EC08981282F30E082
:1014D0008A819B81FC01E20FF31F80810E94320A06
:1014E00089818F5F89838981282F30E08A819B8160
:1014F000FC01E20FF31F8081882339F70F900F90D2
:101500000F90CF91DF9108950F931F93DF93CF93A7
:10151000CDB7DEB760970FB6F894DEBF0FBECDBF74
:101520006D877E878F87988B8D859E85AF85B889DF
:10153000BB2394F48DE20E94320A8D859E85AF858F
:10154000B889B095A095909581959F4FAF4FBF4FAB
:101550008D879E87AF87B88B8D859E85AF85B8892F
:101560000097A105B10521F480E30E94320A50C022
:101570001A822EC08A81082F10E08D859E85AF8546
:10158000B8892AE030E040E050E0BC01CD010E9483
:10159000DC1FDC01CB01282F205DCE010396FC016E
:1015A000E00FF11F20838A818F5F8A838D859E855E
:1015B000AF85B8892AE030E040E050E0BC01CD01C1
:1015C0000E94DC1FDA01C9018D879E87AF87B88B27
:1015D0008D859E85AF85B889181619061A061B06D3
:1015E0004CF28A81898311C08981882F90E09C0107
:1015F00021503040CE010396FC01E20FF31F8081A1
:101600000E94320A8981815089838981882361F708
:1016100060960FB6F894DEBF0FBECDBFCF91DF91BD
:101620001F910F910895DF93CF93CDB7DEB7E0E21E
:10163000F0E08FEF8083E1E2F0E080818C7F8083B7
:10164000E6E5F0E0808184608083CF91DF910895AA
:10165000DF93CF93CDB7DEB7E6E5F0E084EA808391
:10166000E6E5F0E0808180788823D1F3CF91DF91A7
:101670000895DF93CF93CDB7DEB7E6E5F0E084E9D8
:101680008083CF91DF910895DF93CF930F92CDB7F1
:10169000DEB78983E3E2F0E089818083E6E5F0E06C
:1016A00084E88083E6E5F0E0808180788823D1F3C8
:1016B0000F90CF91DF910895DF93CF93CDB7DEB731
:1016C000E6E5F0E084E88083E6E5F0E0808180787C
:1016D0008823D1F3E3E2F0E08081CF91DF91089598
:1016E000DF93CF9300D00F92CDB7DEB78B831A82F2
:1016F00019828B81882F90E0982F88279A8389837D
:1017000089819A8124E630E0B9010E94B51FCB019E
:101710009A838983E3E4F0E0898180830F900F90BE
:101720000F90CF91DF910895DF93CF9300D000D039
:10173000CDB7DEB79C838B831A82198210C0E8E58F
:10174000F0E0808180788823D1F3E8E5F0E08081C3
:101750008068808389819A8101969A83898329810F
:101760003A818B819C812817390748F30F900F909D
:101770000F900F90CF91DF910895DF93CF93CDB766
:10178000DEB7E5E4F0E08081887F84608083E5E473
:10179000F0E080818F7B8083E5E4F0E080818860E9
:1017A0008083E5E4F0E080818F7C80618083E9E5DF
:1017B000F0E0808180688083CF91DF910895DF938E
:1017C000CF930F92CDB7DEB78983E4E4F0E089814F
:1017D00080830F90CF91DF910895DF93CF930F9285
:1017E000CDB7DEB78983E3E4F0E0898180830F9091
:1017F000CF91DF910895DF93CF9300D00F92CDB7B3
:10180000DEB79B838A8319828A819B81009719F4B2
:1018100081E0898306C08A819B8190935F038093D6
:101820005E0389810F900F900F90CF91DF91089503
:10183000DF93CF9300D00F92CDB7DEB79B838A831F
:1018400019828A819B81009719F481E0898306C0FF
:101850008A819B8190935D0380935C0389810F90C3
:101860000F900F90CF91DF9108951F920F920FB6B6
:101870000F9211242F933F934F935F936F937F9316
:101880008F939F93AF93BF93EF93FF93DF93CF9388
:10189000CDB7DEB7E0915C03F0915D030995CF9180
:1018A000DF91FF91EF91BF91AF919F918F917F91C8
:1018B0006F915F914F913F912F910F900FBE0F90BD
:1018C0001F9018951F920F920FB60F9211242F930D
:1018D0003F934F935F936F937F938F939F93AF93B8
:1018E000BF93EF93FF93DF93CF93CDB7DEB7E09134
:1018F0005E03F0915F030995CF91DF91FF91EF9126
:10190000BF91AF919F918F917F916F915F914F9117
:101910003F912F910F900FBE0F901F901895DF935E
:10192000CF93CDB7DEB7EEE4F0E08081887F8460AE
:101930008083EFE4F0E080818C7F8083EEE4F0E050
:101940008081877E88608083EFE4F0E080818F7300
:101950008083EFE4F0E080818F7C8083E9E5F0E034
:10196000808180618083CF91DF910895DF93CF9351
:1019700000D0CDB7DEB79A838983EAE4F0E08981AD
:101980009A81918380830F900F90CF91DF9108957A
:10199000DF93CF9300D0CDB7DEB79A838983E8E495
:1019A000F0E089819A81918380830F900F90CF918D
:1019B000DF910895DF93CF9300D0CDB7DEB79A8340
:1019C0008983E6E4F0E089819A81918380830F9096
:1019D0000F90CF91DF910895DF93CF9300D0CDB7D3
:1019E000DEB79A838983ECE4F0E089819A81918360
:1019F00080830F900F90CF91DF910895DF93CF9365
:101A0000CDB7DEB7ECE4F0E080819181CF91DF913A
:101A10000895DF93CF9300D00F92CDB7DEB79B83AD
:101A20008A8319828A819B81009719F481E08983D6
:101A300006C08A819B8190936103809360038981B2
:101A40000F900F900F90CF91DF910895DF93CF9378
:101A500000D00F92CDB7DEB79B838A8319828A812B
:101A60009B81009719F481E0898306C08A819B815C
:101A7000909363038093620389810F900F900F907E
:101A8000CF91DF910895DF93CF9300D00F92CDB720
:101A9000DEB79B838A8319828A819B81009719F420
:101AA00081E0898306C08A819B819093650380933E
:101AB000640389810F900F900F90CF91DF9108956B
:101AC000DF93CF9300D00F92CDB7DEB79B838A838D
:101AD00019828A819B81009719F481E0898306C06D
:101AE0008A819B81909367038093660389810F901D
:101AF0000F900F90CF91DF9108951F920F920FB624
:101B00000F9211242F933F934F935F936F937F9383
:101B10008F939F93AF93BF93EF93FF93DF93CF93F5
:101B2000CDB7DEB7E0916603F09167030995E8E56C
:101B3000F0E0808180628083CF91DF91FF91EF910F
:101B4000BF91AF919F918F917F916F915F914F91D5
:101B50003F912F910F900FBE0F901F9018951F92DD
:101B60000F920FB60F9211242F933F934F935F93D1
:101B70006F937F938F939F93AF93BF93EF93FF9355
:101B8000DF93CF93CDB7DEB7E0916003F0916103AF
:101B90000995CF91DF91FF91EF91BF91AF919F9107
:101BA0008F917F916F915F914F913F912F910F9006
:101BB0000FBE0F901F9018951F920F920FB60F92A5
:101BC00011242F933F934F935F936F937F938F9342
:101BD0009F93AF93BF93EF93FF93DF93CF93CDB7D3
:101BE000DEB7E0916203F09163030995CF91DF9135
:101BF000FF91EF91BF91AF919F918F917F916F91E5
:101C00005F914F913F912F910F900FBE0F901F90BA
:101C100018951F920F920FB60F9211242F933F9396
:101C20004F935F936F937F938F939F93AF93BF93E4
:101C3000EF93FF93DF93CF93CDB7DEB7E0916403CB
:101C4000F09165030995CF91DF91FF91EF91BF91DD
:101C5000AF919F918F917F916F915F914F913F9144
:101C60002F910F900FBE0F901F901895DF93CF9379
:101C700000D00F92CDB7DEB78B831A8219828B8189
:101C8000882F90E0982F88279A83898389819A8169
:101C900024E630E0B9010E94B51FCB019A83898305
:101CA000ECE5F0E0898180830F900F900F90CF9149
:101CB000DF910895DF93CF9300D000D0CDB7DEB78A
:101CC0009C838B831A82198210C0E8E5F0E0808142
:101CD00082708823D1F3E8E5F0E080818260808320
:101CE00089819A8101969A83898329813A818B819E
:101CF0009C812817390748F30F900F900F900F9091
:101D0000CF91DF910895DF93CF93CDB7DEB7E3E5B1
:101D1000F0E08081887F84608083E3E5F0E080816B
:101D20008F7B8083E3E5F0E0808188608083E3E55A
:101D3000F0E080818F7C80618083E9E5F0E0808144
:101D400082608083CF91DF910895DF93CF930F92CC
:101D5000CDB7DEB78983E2E5F0E0898180830F901B
:101D6000CF91DF910895DF93CF930F92CDB7DEB778
:101D70008983ECE5F0E0898180830F90CF91DF913A
:101D80000895DF93CF9300D00F92CDB7DEB79B833A
:101D90008A8319828A819B81009719F481E0898363
:101DA00006C08A819B8190936B0380936A0389812B
:101DB0000F900F900F90CF91DF910895DF93CF9305
:101DC00000D00F92CDB7DEB79B838A8319828A81B8
:101DD0009B81009719F481E0898306C08A819B81E9
:101DE000909369038093680389810F900F900F90FF
:101DF000CF91DF9108951F920F920FB60F92112489
:101E00002F933F934F935F936F937F938F939F9302
:101E1000AF93BF93EF93FF93DF93CF93CDB7DEB72D
:101E2000E0916803F09169030995CF91DF91FF91EB
:101E3000EF91BF91AF919F918F917F916F915F9142
:101E40004F913F912F910F900FBE0F901F901895BB
:101E50001F920F920FB60F9211242F933F934F931F
:101E60005F936F937F938F939F93AF93BF93EF9302
:101E7000FF93DF93CF93CDB7DEB7E0916A03F09184
:101E80006B030995CF91DF91FF91EF91BF91AF91D6
:101E90009F918F917F916F915F914F913F912F9182
:101EA0000F900FBE0F901F901895DF93CF93CDB773
:101EB000DEB7EAE3F0E081E08083E7E3F0E088E08A
:101EC0008083E4E3F0E01082E1E3F0E01082EBE3F2
:101ED000F0E01082E8E3F0E01082E5E3F0E0108249
:101EE000E2E3F0E084E08083CF91DF910895DF9317
:101EF000CF93CDB7DEB7AFE5B0E0EFE5F0E080819E
:101F000080688C93CF91DF910895DF93CF93CDB705
:101F1000DEB7AFE5B0E0EFE5F0E080818F778C933E
:101F2000CF91DF910895DF93CF93CDB7DEB7A5E5CD
:101F3000B0E0E5E5F0E0808181608C93A5E5B0E05C
:101F4000E5E5F0E080818D7F8C93ABE5B0E0EBE5DB
:101F5000F0E0808180648C93CF91DF910895DF93CE
:101F6000CF93CDB7DEB7A5E5B0E0E5E5F0E0808141
:101F700084608C93A5E5B0E0E5E5F0E08081877FA3
:101F80008C93CF91DF910895DF93CF93CDB7DEB7D8
:101F9000A4E5B0E0E4E5F0E080818F7B8C93CF9105
:101FA000DF910895DF93CF93CDB7DEB729970FB6B2
:101FB000F894DEBF0FBECDBF8A836B8319828A81FE
:101FC000813009F05EC08B81282F30E03987288767
:101FD000888599858130910521F1288539852230C0
:101FE00031052CF488859985009761F047C02885D4
:101FF00039852230310521F1888599858330910515
:1020000071F13CC0A5E5B0E0E5E5F0E080818E7FB0
:102010008C93A5E5B0E0E5E5F0E080818D7F8C93C1
:10202000BAC0A5E5B0E0E5E5F0E0808181608C9381
:10203000A5E5B0E0E5E5F0E080818D7F8C93ABC055
:10204000A5E5B0E0E5E5F0E080818E7F8C93A5E525
:10205000B0E0E5E5F0E0808182608C939CC0A5E56E
:10206000B0E0E5E5F0E0808181608C93A5E5B0E02B
:10207000E5E5F0E0808182608C938DC081E089830A
:102080008AC08A81823009F05EC08B81282F30E0BF
:102090003F832E838E819F818130910521F12E8196
:1020A0003F81223031052CF48E819F81009761F0B1
:1020B00047C02E813F812230310521F18E819F81E1
:1020C0008330910571F13CC0A5E5B0E0E5E5F0E0B5
:1020D00080818B7F8C93A5E5B0E0E5E5F0E0808121
:1020E000877F8C9358C0A5E5B0E0E5E5F0E08081FE
:1020F00084608C93A5E5B0E0E5E5F0E08081877F22
:102100008C9349C0A5E5B0E0E5E5F0E080818B7FE8
:102110008C93A5E5B0E0E5E5F0E0808188608C93E4
:102120003AC0A5E5B0E0E5E5F0E0808184608C93FD
:10213000A5E5B0E0E5E5F0E0808188608C932BC0F8
:1021400081E0898328C08A81833019F58B81282F0B
:1021500030E03D832C838C819D818230910531F06C
:102160002C813D812330310549F010C0A4E5B0E059
:10217000E4E5F0E080818F7B8C930DC0A4E5B0E0B6
:10218000E4E5F0E0808180648C9305C081E0898380
:1021900002C081E08983898129960FB6F894DEBF59
:1021A0000FBECDBFCF91DF910895DF93CF9300D0C5
:1021B00000D0CDB7DEB78A8319828A81282F30E01C
:1021C0003C832B838B819C818230910591F02B8104
:1021D0003C8123303105A9F08B819C8181309105B0
:1021E000C1F4ABE5B0E0EBE5F0E0808180648C9376
:1021F00012C0ABE5B0E0EBE5F0E0808180688C9345
:102200000AC0ABE5B0E0EBE5F0E0808180628C9342
:1022100002C081E0898389810F900F900F900F9009
:10222000CF91DF910895DF93CF9300D000D0CDB749
:10223000DEB78A8319828A81282F30E03C832B8382
:102240008B819C818230910591F02B813C812330E0
:102250003105A9F08B819C8181309105C1F4ABE5FA
:10226000B0E0EBE5F0E080818F7B8C9312C0ABE5B2
:10227000B0E0EBE5F0E080818F778C930AC0ABE5AE
:10228000B0E0EBE5F0E080818F7D8C9302C081E0CF
:10229000898389810F900F900F900F90CF91DF91DC
:1022A0000895DF93CF9300D00F92CDB7DEB79B8315
:1022B0008A8319828A819B81009739F08A819B8168
:1022C00090936D0380936C0302C082E089838981BF
:1022D0000F900F900F90CF91DF910895DF93CF93E0
:1022E00000D00F92CDB7DEB79B838A8319828A8193
:1022F0009B81009739F08A819B8190936F03809333
:102300006E0302C082E0898389810F900F900F9045
:10231000CF91DF910895DF93CF9300D00F92CDB787
:10232000DEB79B838A8319828A819B81009739F06B
:102330008A819B81909371038093700302C082E035
:10234000898389810F900F900F90CF91DF9108952D
:102350001F920F920FB60F9211242F933F934F931A
:102360005F936F937F938F939F93AF93BF93EF93FD
:10237000FF93DF93CF93CDB7DEB780916C0390913D
:102380006D03009729F0E0916C03F0916D030995BE
:10239000CF91DF91FF91EF91BF91AF919F918F917D
:1023A0007F916F915F914F913F912F910F900FBE51
:1023B0000F901F9018951F920F920FB60F92112435
:1023C0002F933F934F935F936F937F938F939F933D
:1023D000AF93BF93EF93FF93DF93CF93CDB7DEB768
:1023E00080916E0390916F03009729F0E0916E0346
:1023F000F0916F030995CF91DF91FF91EF91BF911C
:10240000AF919F918F917F916F915F914F913F918C
:102410002F910F900FBE0F901F9018951F920F9243
:102420000FB60F9211242F933F934F935F936F93A7
:102430007F938F939F93AF93BF93EF93FF93DF931C
:10244000CF93CDB7DEB78091700390917103009761
:1024500029F0E0917003F09171030995CF91DF911C
:10246000FF91EF91BF91AF919F918F917F916F916C
:102470005F914F913F912F910F900FBE0F901F9042
:102480001895DF93CF9300D000D00F92CDB7DEB771
:102490008A836B8319828A81843018F081E0898372
:1024A00032C08A81282F30E03D832C838C819D812E
:1024B00081309105D1F02C813D81223031052CF401
:1024C0008C819D81009761F01EC02C813D8122305E
:1024D000310581F08C819D818330910581F013C09D
:1024E000EBE3F0E08B8180830EC0E8E3F0E08B81CA
:1024F000808309C0E5E3F0E08B81808304C0E2E3E0
:10250000F0E08B81808389810F900F900F900F9066
:102510000F90CF91DF910895DF93CF93CDB7DEB7C2
:1025200028970FB6F894DEBF0FBECDBF8A836B83AA
:102530004C8319828A81843018F081E08983F0C04D
:102540008B81883018F081E08983EAC08C818130EA
:1025500009F06FC08A81282F30E038872F838F8160
:1025600098858130910549F12F81388522303105D8
:102570002CF48F819885009761F0D2C02F81388527
:102580002230310571F18F81988583309105E9F111
:10259000C7C0ABE3B0E0EBE3F0E08081482F8B8174
:1025A000282F30E081E090E0022E02C0880F991FB2
:1025B0000A94E2F7842B8C93B3C0A8E3B0E0E8E37D
:1025C000F0E08081482F8B81282F30E081E090E07F
:1025D000022E02C0880F991F0A94E2F7842B8C9375
:1025E0009FC0A5E3B0E0E5E3F0E08081482F8B8158
:1025F000282F30E081E090E0022E02C0880F991F62
:102600000A94E2F7842B8C938BC0A2E3B0E0E2E360
:10261000F0E08081482F8B81282F30E081E090E02E
:10262000022E02C0880F991F0A94E2F7842B8C9324
:1026300077C08C81882309F073C08A81282F30E00D
:102640003E832D838D819E818130910559F12D81AD
:102650003E81223031052CF48D819E81009769F0F6
:102660005FC02D813E812230310589F18D819E81AF
:102670008330910509F440C053C0ABE3B0E0EBE315
:10268000F0E08081482F8B81282F30E081E090E0BE
:10269000022E02C0880F991F0A94E2F780958423C6
:1026A0008C933EC0A8E3B0E0E8E3F0E08081482FDF
:1026B0008B81282F30E081E090E0022E02C0880F4D
:1026C000991F0A94E2F7809584238C9329C0A5E38F
:1026D000B0E0E5E3F0E08081482F8B81282F30E0E7
:1026E00081E090E0022E02C0880F991F0A94E2F761
:1026F000809584238C9314C0A2E3B0E0E2E3F0E081
:102700008081482F8B81282F30E081E090E0022EDD
:1027100002C0880F991F0A94E2F7809584238C9356
:10272000898128960FB6F894DEBF0FBECDBFCF913A
:10273000DF910895DF93CF9300D000D00F92CDB7F3
:10274000DEB78A836B8319828A81843018F083E034
:10275000898332C08A81282F30E03D832C838C818D
:102760009D8181309105D1F02C813D812230310550
:102770002CF48C819D81009761F01EC02C813D81DD
:102780002230310581F08C819D818330910581F06B
:1027900013C0EAE3F0E08B8180830EC0E7E3F0E052
:1027A0008B81808309C0E4E3F0E08B81808304C0E7
:1027B000E1E3F0E08B81808389810F900F900F908F
:1027C0000F900F90CF91DF910895DF93CF93CDB706
:1027D000DEB728970FB6F894DEBF0FBECDBF8A8351
:1027E0006B834C8319828A81843018F083E089835B
:1027F000F0C08B81883018F083E08983EAC08C8137
:10280000882309F074C08A81282F30E038872F830D
:102810008F8198858130910559F12F81388522303B
:1028200031052CF48F819885009769F0D2C02F81F3
:1028300038852230310589F18F8198858330910563
:1028400009F440C0C6C0AAE3B0E0EAE3F0E080814A
:10285000482F8B81282F30E081E090E0022E02C0CB
:10286000880F991F0A94E2F7809584238C93B1C056
:10287000A7E3B0E0E7E3F0E08081482F8B81282FC9
:1028800030E081E090E0022E02C0880F991F0A9488
:10289000E2F7809584238C939CC0A4E3B0E0E4E34A
:1028A000F0E08081482F8B81282F30E081E090E09C
:1028B000022E02C0880F991F0A94E2F780958423A4
:1028C0008C9387C0A1E3B0E0E1E3F0E08081482F82
:1028D0008B81282F30E081E090E0022E02C0880F2B
:1028E000991F0A94E2F7809584238C9372C08C819F
:1028F000813009F06EC08A81282F30E03E832D831D
:102900008D819E818130910549F12D813E8122305A
:1029100031052CF48D819E81009761F05AC02D8184
:102920003E812230310571F18D819E818330910588
:10293000E9F14FC0AAE3B0E0EAE3F0E08081482F7C
:102940008B81282F30E081E090E0022E02C0880FBA
:10295000991F0A94E2F7842B8C933BC0A7E3B0E065
:10296000E7E3F0E08081482F8B81282F30E081E081
:1029700090E0022E02C0880F991F0A94E2F7842B80
:102980008C9327C0A4E3B0E0E4E3F0E08081482F1B
:102990008B81282F30E081E090E0022E02C0880F6A
:1029A000991F0A94E2F7842B8C9313C0A1E3B0E043
:1029B000E1E3F0E08081482F8B81282F30E081E037
:1029C00090E0022E02C0880F991F0A94E2F7842B30
:1029D0008C93898128960FB6F894DEBF0FBECDBFC9
:1029E000CF91DF910895DF93CF93CDB7DEB72797CF
:1029F0000FB6F894DEBF0FBECDBF8A836B835D83B5
:102A00004C8319828A81843018F082E0898376C0F1
:102A10008B81883018F082E0898370C08A81282FEA
:102A200030E03F832E834E815F814130510559F163
:102A30008E819F818230910534F42E813F81211552
:102A4000310569F05BC04E815F814230510579F1FB
:102A50008E819F818330910509F43DC04FC0E9E329
:102A6000F0E08081282F30E08B81882F90E0A90151
:102A700002C0559547958A95E2F7CA018170EC81AD
:102A8000FD8180833BC0E6E3F0E08081282F30E0C9
:102A90008B81882F90E0A90102C0559547958A95B2
:102AA000E2F7CA018170EC81FD81808327C0E3E3F6
:102AB000F0E08081282F30E08B81882F90E0A90101
:102AC00002C0559547958A95E2F7CA018170EC815D
:102AD000FD81808313C0E0E3F0E08081282F30E0A7
:102AE0008B81882F90E0A90102C0559547958A9562
:102AF000E2F7CA018170EC81FD818083898127968C
:102B00000FB6F894DEBF0FBECDBFCF91DF91089511
:102B1000DF93CF9300D000D000D0CDB7DEB78A834B
:102B20007C836B8319828A81843018F081E08983E9
:102B30003AC08A81282F30E03E832D838D819E818B
:102B400081309105E1F02D813E81223031052CF458
:102B50008D819E81009761F026C02D813E812230BB
:102B60003105A1F08D819E8183309105B1F01BC0AC
:102B7000E9E3F0E08081EB81FC81808314C0E6E32F
:102B8000F0E08081EB81FC8180830DC0E3E3F0E025
:102B90008081EB81FC81808306C0E0E3F0E08081EE
:102BA000EB81FC818083898126960FB6F894DEBF85
:102BB0000FBECDBFCF91DF910895DF93CF93CDB7F7
:102BC000DEB7E6E2F0E08081887F83608083E7E221
:102BD000F0E080818F7380648083E7E2F0E08081A1
:102BE0008F7D8083E6E2F0E0808180628083E0E593
:102BF000F0E080818F7180688083E6E2F0E0808180
:102C000080688083CF91DF910895DF93CF93CDB714
:102C1000DEB728970FB6F894DEBF0FBECDBF8E8308
:102C200078876F831D8219821A821B821C828F8192
:102C30009885009719F481E08D834AC08E81883091
:102C400018F082E08D8344C0E7E2F0E08E818F715E
:102C5000982F9F718081807E892B80830BC0898112
:102C60009A81AB81BC810196A11DB11D89839A8394
:102C7000AB83BC83E6E2F0E080818071882361F45D
:102C800089819A81AB81BC81843F21E0920720E059
:102C9000A20720E0B20718F389819A81AB81BC8139
:102CA000843F21E0920720E0A20720E0B20719F458
:102CB00083E08D830DC0E6E2F0E080818061808357
:102CC000E4E2F0E080819181EF81F8859183808357
:102CD0008D8128960FB6F894DEBF0FBECDBFCF9181
:102CE000DF910895DF93CF9300D000D000D0CDB70F
:102CF000DEB78A837C836B835E834D8319828D81EB
:102D00009E81009719F481E089831EC08A818830F2
:102D100018F082E0898318C08B819C81009719F498
:102D200081E0898311C08B819C8190937303809390
:102D300072038D819E819093750380937403E6E204
:102D4000F0E0808188608083898126960FB6F894B0
:102D5000DEBF0FBECDBFCF91DF9108951F920F92BE
:102D60000FB60F9211242F933F934F935F936F935E
:102D70007F938F939F93AF93BF93EF93FF93DF93D3
:102D8000CF93CDB7DEB7A0917403B0917503E4E2A1
:102D9000F0E0808191818D939C93E0917203F0919A
:102DA00073030995CF91DF91FF91EF91BF91AF919F
:102DB0009F918F917F916F915F914F913F912F9153
:102DC0000F900FBE0F901F901895DF93CF93CDB744
:102DD000DEB7E5E5F0E080EA8083CF91DF910895EA
:102DE000DF93CF93CDB7DEB70E94130B0E94280B61
:102DF00088E70E94440B80E00E94440B8EEA0E9408
:102E00004E1785ED0E944E1780E80E944E1788EA03
:102E10000E944E178FE30E944E1783ED0E944E17BB
:102E200080E00E944E1780E40E944E178DE80E94B9
:102E30004E1784E10E944E1780E20E944E1780E0F8
:102E40000E944E1781EA0E944E1788EC0E944E178E
:102E50008AED0E944E1782E10E944E1781E80E947F
:102E60004E178FEC0E944E1789ED0E944E1781EF8E
:102E70000E944E178BED0E944E1780E40E944E1761
:102E800084EA0E944E1786EA0E944E178FEA0E943B
:102E90004E170E94390BCF91DF910895DF93CF93A6
:102EA0000F92CDB7DEB789830E94280B88E70E9476
:102EB000440B80E00E94440B89810E94440B0E94D5
:102EC000390B0F90CF91DF910895DF93CF930F923D
:102ED000CDB7DEB789830E94280B88E70E94440B98
:102EE00080E40E94440B89810E94440B0E94390BAC
:102EF0000F90CF91DF910895DF93CF9300D0CDB79E
:102F0000DEB71A821CC08A8160E00E94A7170E9467
:102F1000280B88E70E94440B80E40E94440B19822E
:102F200006C080E00E94440B89818F5F898389817C
:102F30008823BCF70E94390B8A818F5F8A838A813C
:102F4000883008F30F900F90CF91DF910895DF93B1
:102F5000CF9300D0CDB7DEB789836A8382E20E9427
:102F60004E1789810E944E1789810E944E1781E277
:102F70000E944E178A810E944E178FE70E944E17BB
:102F80000F900F90CF91DF910895DF93CF93CDB73E
:102F9000DEB763970FB6F894DEBF0FBECDBF998B37
:102FA000888B6A8B4B8B8DB79EB708970FB6F894BA
:102FB0009EBF0FBE8DBFEDB7FEB73196CE01069610
:102FC000918380838AE090E09383828380E890E01D
:102FD0009583848388899989978386830E94732146
:102FE0008DB79EB708960FB6F8949EBF0FBE8DBFE3
:102FF000CE0106960E9455218D838A896B890E9495
:10300000A7171C8244C08C81282F30E0CE01069681
:10301000FC01E20FF31F80818033B0F18C81282FF7
:1030200030E0CE010696FC01E20FF31F80818A3367
:1030300058F58C81282F30E0CE010696FC01E20F76
:10304000F31F808180528B831A8218C08B81282FB6
:1030500030E08A81482F50E0C901880F991F880FFE
:10306000991F820F931F840F951FFC01EB56FE4F93
:1030700080810E9465178A818F5F8A838A8185306B
:1030800028F380E00E9465178C818F5F8C838C8190
:10309000282F30E0CE010696FC01E20FF31F80815D
:1030A000882309F0B0CF8D81282F30E0C901880F27
:1030B000991F820F931F880F991F898306C080E094
:1030C0000E94651789818F5F898389818231B8F376
:1030D00063960FB6F894DEBF0FBECDBFCF91DF91E0
:1030E0000895DF93CF9300D000D00F92CDB7DEB715
:1030F0008B836C834D838C816D810E94A7178B819C
:1031000080528A83198218C08A81282F30E08981F1
:10311000482F50E0C901880F991F880F991F820F0F
:10312000931F840F951FFC01EB56FE4F80810E9478
:10313000651789818F5F89838981853028F380E0D5
:103140000E9465170F900F900F900F900F90CF91E6
:10315000DF910895DF93CF9300D000D00F92CDB7C9
:10316000DEB79B838A836C834D8319821AC08D815D
:10317000882324F48C818F5F8C831D828981282F82
:1031800030E08A819B81FC01E20FF31F80816C811A
:103190004D810E9471188D818A5F8D8389818F5F37
:1031A00089838981282F30E08A819B81FC01E20F8D
:1031B000F31F80818823D9F60F900F900F900F9006
:1031C0000F90CF91DF910895DF93CF9300D00F92AE
:1031D000CDB7DEB79A8389836B83ECE3F0E080811F
:1031E000882F90E0827090700097B9F7EFE3F0E0DD
:1031F00089819A81892F99278083EEE3F0E0898184
:103200008083EDE3F0E08B818083ACE3B0E0ECE31E
:10321000F0E0808184608C93ACE3B0E0ECE3F0E01C
:10322000808182608C930F900F900F90CF91DF91EF
:103230000895DF93CF9300D0CDB7DEB79A8389830B
:10324000EFE3F0E089819A81892F99278083EEE36B
:10325000F0E089818083ACE3B0E0ECE3F0E08081D2
:1032600081608C93EDE3F0E080810F900F90CF911F
:10327000DF910895DF93CF930F92CDB7DEB78091A2
:10328000910190919201282F019690939201809341
:10329000910181E191E0622F0E94601981E191E04A
:1032A0000E947F1989830F90CF91DF910895DF935A
:1032B000CF93CDB7DEB70E94130BCF91DF91089566
:1032C000DF93CF9300D000D0CDB7DEB79B838A8346
:1032D0006C8380EA89830E94280B89810E94440BB9
:1032E0008A810E94440B8C810E94440B0E94390BFE
:1032F0000F900F900F900F90CF91DF910895DF9373
:10330000CF9300D000D00F92CDB7DEB79D838C83D2
:1033100080EA8B838B818F5F8A830E94280B8B814D
:103320000E94440B8C810E94440B0E94280B8A81CE
:103330000E94440B0E945C0B89830E94390B898197
:103340000F900F900F900F900F90CF91DF910895F5
:10335000DF93CF93CDB7DEB72C970FB6F894DEBFCF
:103360000FBECDBF9C878B8784E690E09E838D83C4
:103370002B853C858D819E81AC01249FC001259FBA
:10338000900D349F900D1124CC01A0E0B0E0898312
:103390009A83AB83BC831F82188619861A860BC05A
:1033A0008F819885A985BA850196A11DB11D8F834E
:1033B0009887A987BA872F81388549855A85898159
:1033C0009A81AB81BC81281739074A075B0740F314
:1033D0002C960FB6F894DEBF0FBECDBFCF91DF9114
:1033E0000895DF93CF930F92CDB7DEB7898381E045
:1033F00060E040E00E948C1281E061E040E00E94C9
:103400008C1280E069810E94411281E062E041E01B
:103410000E948C1282E090E00E94A81981E062E094
:1034200040E00E948C120F90CF91DF910895DF93BE
:10343000CF93CDB7DEB788E290E00E94A81988E369
:103440000E94F1198CE00E94F11981E00E94F119AB
:10345000CF91DF910895DF93CF930F92CDB7DEB771
:10346000898381E060E041E00E948C1281E061E0AC
:1034700040E00E948C1280E069810E94411281E04C
:1034800062E041E00E948C1282E090E00E94A81964
:1034900081E062E040E00E948C120F90CF91DF91BA
:1034A0000895DF93CF9300D00F92CDB7DEB79B8303
:1034B0008A8319820EC08981282F30E08A819B81FE
:1034C000FC01E20FF31F80810E942B1A89818F5F1C
:1034D00089838981282F30E08A819B81FC01E20F5A
:1034E000F31F8081882339F70F900F900F90CF91B1
:1034F000DF910895DF93CF9300D00F92CDB7DEB761
:103500008A836B838A81882319F48B81898306C01F
:103510008A81813019F48B81805C898389818068FC
:103520000E94F1190F900F900F90CF91DF910895A5
:103530000F931F93DF93CF93CDB7DEB7A8970FB646
:10354000F894DEBF0FBECDBF6DA37EA38FA398A757
:103550006DA17EA18FA198A520E030E040E050E071
:103560000E94F503882364F48DE20E942B1A8DA13A
:103570009EA1AFA1B8A5B0588DA39EA3AFA3B8A735
:103580006DA17EA18FA198A50E948304DC01CB01CF
:103590008D879E87AF87B88B6D857E858F8598894F
:1035A0000E9425049B01AC016DA17EA18FA198A56D
:1035B0000E94C101DC01CB0189879A87AB87BC8758
:1035C0008D859E85AF85B8890097A105B10521F449
:1035D00080E30E942B1A50C01C822EC08C81082FC1
:1035E00010E08D859E85AF85B8892AE030E040E007
:1035F00050E0BC01CD010E94DC1FDC01CB01282F73
:10360000205DCE014196FC01E00FF11F20838C81EB
:103610008F5F8C838D859E85AF85B8892AE030E0E9
:1036200040E050E0BC01CD010E94DC1FDA01C9017D
:103630008D879E87AF87B88B8D859E85AF85B8892E
:10364000181619061A061B064CF28C818B8311C0C2
:103650008B81882F90E09C0121503040CE01419613
:10366000FC01E20FF31F80810E942B1A8B81815095
:103670008B838B81882361F78EE20E942B1A6985E8
:103680007A858B859C8520E030E04AE754E40E94EF
:103690001F02DC01CB0189879A87AB87BC876985CC
:1036A0007A858B859C8520E030E040E05FE30E94D6
:1036B000F201DC01CB01BC01CD010E948304DC01DD
:1036C000CB018D839E83AF83B8878D819E81AF812F
:1036D000B8850097A105B10551F480E30E942B1A2B
:1036E00080E30E942B1A80E30E942B1A50C01A829A
:1036F0002EC08A81082F10E08D819E81AF81B88510
:103700002AE030E040E050E0BC01CD010E94DC1F27
:10371000DC01CB01282F205DCE014B96FC01E00F90
:10372000F11F20838A818F5F8A838D819E81AF8183
:10373000B8852AE030E040E050E0BC01CD010E94B5
:10374000DC1FDA01C9018D839E83AF83B8878D8129
:103750009E81AF81B885181619061A061B064CF211
:103760008A81898311C08981882F90E09C01215032
:103770003040CE014B96FC01E20FF31F80810E9486
:103780002B1A8981815089838981882361F7A896C2
:103790000FB6F894DEBF0FBECDBFCF91DF911F9162
:1037A0000F910895DF93CF93CDB7DEB727970FB66C
:1037B000F894DEBF0FBECDBF9C838B836D834E8399
:1037C0002F831A828D81882F90E0880F991F880F90
:1037D000991F880F991F8A838A8180640E94F1193A
:1037E00019820EC08981282F30E08B819C81FC01D9
:1037F000E20FF31F80810E942B1A89818F5F8983DA
:103800008981883078F38E816F810E947A1A8D8148
:103810000E942B1A27960FB6F894DEBF0FBECDBFBD
:10382000CF91DF910895DF93CF93CDB7DEB782E0DC
:1038300060E040E00E948C1282E062E041E00E9481
:103840008C12CF91DF910895DF93CF93CDB7DEB780
:1038500082E062E040E00E948C1282E061E040E0A1
:103860000E948C1282E060E041E00E948C12CF91B5
:10387000DF910895DF93CF93CDB7DEB782E062E0AA
:1038800040E00E948C1282E060E040E00E948C12D6
:1038900082E061E041E00E948C12CF91DF910895B7
:1038A000DF93CF93CDB7DEB7809176039091770306
:1038B00001969093770380937603CF91DF910895DB
:1038C000DF93CF93CDB7DEB70E94550F0E94171A32
:1038D0000E94770F0E948F0C82E19AE70E94B60C3B
:1038E00080E59CE10E94090D8FE793E00E946A0742
:1038F0008FE793E023E13CE1B9010E948A07CF9171
:10390000DF910895DF93CF93CDB7DEB78091760333
:103910009091770385309105A9F48091930190915E
:1039200094018530910571F08FE793E02AE33CE143
:10393000B9010E948A0785E090E0909394018093FA
:10394000930145C080917603909177038A30910569
:10395000A9F480919301909194018A30910571F0BE
:103960008FE793E024E23CE1B9010E948A078AE0F4
:1039700090E0909394018093930129C08091760305
:10398000909177038F30910511F58091930190917B
:1039900094018F309105D9F08FE793E02DE733E064
:1039A000B9010E94D8078FE793E02DE733E0B90112
:1039B0000E94D80710927703109276038FEF9FEF43
:1039C000909394018093930181E00E94F119CF912B
:1039D000DF910895DF93CF93CDB7DEB7E0917F03FA
:1039E000F09180038281938190937E0380937D0385
:1039F000E0917D03F0917E0309950E94821C80E096
:103A000060E00E947A1A8091760390917703AA274A
:103A100097FDA095BA2FBC01CD010E942504DC01C1
:103A2000CB01BC01CD010E94981A81E060E00E94A8
:103A30007A1A8091810390918203A0918303B091BF
:103A40008403BC01CD010E94D704DC01CB01BC0181
:103A5000CD010E94981ACF91DF910895DF93CF9303
:103A600000D000D0CDB7DEB769837A838B839C8387
:103A700069817A818B819C8120E030E040E853E4C9
:103A80000E941F02DC01CB01BC01CD0120E030E02F
:103A900040E05FE30E94F201DC01CB01BC01CD01FB
:103AA0000E944900DC01CB010F900F900F900F9006
:103AB000CF91DF910895DF93CF930F92CDB7DEB70B
:103AC00089838981882F90E0982F88270F90CF9144
:103AD000DF910895DF93CF9300D0CDB7DEB79A83FF
:103AE000898389819A81892F9927CC01A0E0B0E050
:103AF000BC01CD010F900F90CF91DF910895EF920F
:103B0000FF920F931F93DF93CF93CDB7DEB72C9720
:103B10000FB6F894DEBF0FBECDBF9C878B8780E0C9
:103B200090E0A0E0B0E08F839887A987BA871B82D6
:103B30001C821D821E828B859C85892F99279A83E2
:103B400089832B853C8584E690E0AC01249FC001ED
:103B5000259F900D349F900D1124892F9927CC011A
:103B6000A0E0B0E08B839C83AD83BE8389819A8182
:103B7000CC01A0E0B0E0BC01CD010E94D7047B01E4
:103B80008C016B817C818D819E810E94D704DC0138
:103B9000CB01BC01CD0120E030E040E85FE30E94B2
:103BA000F201DC01CB01BC01CD0120E030E048ECAA
:103BB00052E40E941903DC01CB019C01AD01C80154
:103BC000B7010E94F201DC01CB018F839887A9879E
:103BD000BA878F819885A985BA85BC01CD012C96BD
:103BE0000FB6F894DEBF0FBECDBFCF91DF911F910E
:103BF0000F91FF90EF900895DF93CF93CDB7DEB78D
:103C00002C970FB6F894DEBF0FBECDBF6D837E83B9
:103C10008F83988729873A874B875C871C821B8212
:103C20001A8219828D819E81AF81B885BC01CD0138
:103C30000E942E1D9C838B8389859A85AB85BC85CC
:103C4000BC01CD010E942E1D9A8389832B813C816A
:103C500089819A81820F931F2C960FB6F894DEBF4C
:103C60000FBECDBFCF91DF910895DF93CF93CDB736
:103C7000DEB72C970FB6F894DEBF0FBECDBF6D83B5
:103C80007E838F83988729873A874B875C871C823E
:103C90001B821A8219828D819E81AF81B885BC01F9
:103CA000CD010E942E1D9C838B8389859A85AB85CF
:103CB000BC85BC01CD010E942E1D9A8389832B8176
:103CC0003C8189819A81A901481B590BCA012C9614
:103CD0000FB6F894DEBF0FBECDBFCF91DF91089530
:103CE000EF92FF920F931F93DF93CF93CDB7DEB781
:103CF00060970FB6F894DEBF0FBECDBF69877A8795
:103D00008B879C872D873E874F87588B18861F820D
:103D10001E821D8219821A821B821C8289859A85C5
:103D2000AB85BC85BC01CD010E942E1D98878F8379
:103D30008D859E85AF85B889BC01CD010E942E1D61
:103D40009E838D838F8198857C0100E010E08D81BA
:103D50009E819C0140E050E0C801B7010E94961F7F
:103D6000DC01CB01892F9A2FAB2FBB27CC01A0E020
:103D7000B0E089839A83AB83BC8389819A81609602
:103D80000FB6F894DEBF0FBECDBFCF91DF911F916C
:103D90000F91FF90EF900895DF93CF93CDB7DEB7EB
:103DA0002A970FB6F894DEBF0FBECDBF69837A8322
:103DB0008B839C832D833E834F8358872A960FB62F
:103DC000F894DEBF0FBECDBFCF91DF910895DF9392
:103DD000CF93CDB7DEB785E893E00E940F09882323
:103DE00041F485E893E04DE050E060E070E00E942F
:103DF0002609CF91DF910895DF93CF93CDB7DEB73A
:103E000080917C038F5F80937C0380917C03883753
:103E100081F485E893E00E940F09882341F485E846
:103E200093E045E050E060E070E00E9426091092C7
:103E30007C03CF91DF910895DF93CF93CDB7DEB7A9
:103E40000E94770F0E94550F8FEF0E94B30E0E94C1
:103E5000830E8CEF9EE10E94DE0E0E94930F87EE90
:103E60009EE10E9451110E94F01685E893E00E94A5
:103E7000E108CF91DF910895DF93CF9300D000D078
:103E8000CDB7DEB780918703882F90E060E040E0F7
:103E90000E94C51785E893E00E94F708882331F453
:103EA00083E664E644E60E94711830C085E893E03A
:103EB00028E733E0B9010E946A0980917803909164
:103EC0007903A0917A03B0917B0389839A83AB83B2
:103ED000BC8389819A81AB81BC8185309105A10524
:103EE000B10579F089819A81AB81BC818D309105D2
:103EF000A105B10559F481E664E644E60E94711813
:103F000005C082E664E644E60E9471180F900F90A7
:103F10000F900F90CF91DF910895DF93CF93CDB79E
:103F2000DEB70E941C1F0E943C1FFDCF629FD00184
:103F3000739FF001829FE00DF11D649FE00DF11D64
:103F4000929FF00D839FF00D749FF00D659FF00D13
:103F50009927729FB00DE11DF91F639FB00DE11D00
:103F6000F91FBD01CF0111240895AA1BBB1B51E10C
:103F700007C0AA1FBB1FA617B70710F0A61BB70BD9
:103F8000881F991F5A95A9F780959095BC01CD017E
:103F9000089597FB092E07260AD077FD04D0E5DFA8
:103FA00006D000201AF4709561957F4F0895F6F7BA
:103FB000909581959F4F089597FB092E05260ED069
:103FC00057FD04D014D00AD0001C38F45095409509
:103FD000309521953F4F4F4F5F4F0895F6F79095DD
:103FE0008095709561957F4F8F4F9F4F0895A1E207
:103FF0001A2EAA1BBB1BFD010DC0AA1FBB1FEE1F63
:10400000FF1FA217B307E407F50720F0A21BB30BAD
:10401000E40BF50B661F771F881F991F1A9469F729
:1040200060957095809590959B01AC01BD01CF0185
:1040300008952F923F924F925F926F927F928F924C
:104040009F92AF92BF92CF92DF92EF92FF920F9327
:104050001F93CF93DF93CDB7DEB7CA1BDB0B0FB631
:10406000F894DEBF0FBECDBF09942A8839884888EE
:104070005F846E847D848C849B84AA84B984C88484
:10408000DF80EE80FD800C811B81AA81B981CE0F7B
:10409000D11D0FB6F894DEBF0FBECDBFED01089560
:1040A000CF93DF93BC018230910510F462E070E0A1
:1040B000A091B203B091B303ED01E0E0F0E040E085
:1040C00050E021C0888199818617970769F48A8119
:1040D0009B81309719F09383828304C09093B3033C
:1040E0008093B203FE0134C06817790738F4411594
:1040F000510519F08417950708F4AC01FE018A8177
:104100009B819C01E9012097E9F641155105A9F130
:10411000CA01861B970B049708F4BA01E0E0F0E0AF
:104120002AC08D919C91119784179507F9F4641713
:10413000750781F412968D919C911397309719F021
:104140009383828304C09093B3038093B203FD01F1
:1041500032964FC0CA01861B970BFD01E80FF91F6D
:104160006193719302978D939C9343C0FD0182816B
:1041700093819C01D9011097A1F68091B003909191
:10418000B103892B41F480918D0190918E01909320
:10419000B1038093B00340918F015091900141157C
:1041A000510541F44DB75EB780918B0190918C0120
:1041B000481B590B2091B0033091B10324173507E8
:1041C000B0F4CA01821B930B8617970780F0AB01EE
:1041D0004E5F5F4F8417950750F0420F531F509367
:1041E000B1034093B003F9016193719302C0E0E021
:1041F000F0E0CF01DF91CF910895CF93DF93009747
:1042000009F450C0EC0122971B821A82A091B203DC
:10421000B091B303109709F140E050E0AC17BD072F
:1042200008F1BB83AA83FE0121913191E20FF31FB4
:10423000AE17BF0779F48D919C911197280F391F04
:104240002E5F3F4F3983288312968D919C9113974F
:104250009B838A834115510571F4D093B303C093B6
:10426000B20320C012968D919C911397AD010097D7
:1042700011F0DC01D3CFFA01D383C28321913191B4
:10428000E20FF31FCE17DF0769F488819981280FA9
:10429000391F2E5F3F4FFA01318320838A819B8132
:1042A00093838283DF91CF910895FC0101900020D8
:1042B000E9F7809590958E0F9F1F0895A0E0B0E0DC
:1042C000E4E6F1E20C942920FE01359661917191AA
:1042D0008091B6039091B703AF010E94A42120966C
:1042E000E2E00C944520AEE0B0E0E9E7F1E20C94A6
:1042F00027200D891E898F89988D97FF02C080E045
:1043000090E801979E838D831A83098386E08C83CE
:104310009E01255E3F4FCE010196698D7A8DA901E0
:104320000E94A4214D815E8157FD0AC02F813885EE
:10433000421753070CF49A01020F131FF801108261
:104340002E96E4E00C944320ABE0B0E0EAEAF1E220
:104350000C9419203C012B015A01FC011782168292
:10436000838181FD03C06FEF7FEFC6C19AE0892E84
:104370001E010894211C311CF3012381F20123FD4D
:10438000859123FF81912F01882309F4B2C18532E1
:1043900039F423FD859123FF81912F01853229F482
:1043A00090E0B3010E949723E7CF982FFF24EE24DB
:1043B0009924FFE1FF15D0F09B3269F09C3228F47C
:1043C000903259F0933291F40EC09D3249F09033FF
:1043D00069F441E024C052E0F52A84E0F82A28C0BC
:1043E00098E0F92A25C0E0E1FE2A22C0F7FC29C0A6
:1043F000892F80538A3070F4F6FE05C0989C902C6B
:104400001124980E15C0E89CE02C1124E80EF0E26F
:10441000FF2A0EC09E3229F4F6FC6BC140E4F42A58
:1044200007C09C3619F450E8F52A02C0983649F4C2
:10443000F20123FD959123FF91912F01992309F01A
:10444000B8CF892F8554833018F08052833038F4E8
:1044500044E050E0A40EB51E5FE359830FC09336CD
:1044600031F0933779F0933509F056C020C0F5014B
:104470008081898342E050E0A40EB51E610101E015
:1044800010E012C0F501C080D180F6FC03C06FEFD0
:104490007FEF02C0692D70E042E050E0A40EB51E2F
:1044A000C6010E948C238C015FE7F52214C0F50140
:1044B000C080D180F6FC03C06FEF7FEF02C0692D92
:1044C00070E042E050E0A40EB51EC6010E948123B8
:1044D0008C0150E8F52AF3FE07C01AC080E290E094
:1044E000B3010E949723EA948E2D90E008171907D4
:1044F000A8F30EC0F601F7FC8591F7FE81916F01DC
:1045000090E0B3010E949723E110EA94015010401B
:104510000115110579F7EAC0943611F0993669F55D
:10452000F7FE08C0F501208131814281538184E08A
:1045300090E00AC0F501808191819C01442737FDFC
:104540004095542F82E090E0A80EB91E9FE6F92214
:1045500057FF09C050954095309521953F4F4F4FDB
:104560005F4FE0E8FE2ACA01B901A1012AE030E06C
:104570000E94C323D82ED21840C0953729F41F2D8E
:104580001F7E2AE030E01DC01F2D197F9F3661F08D
:10459000903720F4983509F0ACC00FC0903739F04F
:1045A000983709F0A6C004C028E030E00AC01061C6
:1045B00014FD146020E130E004C014FD166020E119
:1045C00032E017FF08C0F50160817181828193811B
:1045D00044E050E008C0F50180819181BC0180E099
:1045E00090E042E050E0A40EB51EA1010E94C3235A
:1045F000D82ED2188FE7F82EF122F6FE0BC05EEF10
:10460000F522D91438F4F4FE07C0F2FC05C08FEE91
:10461000F82202C01D2D01C0192DF4FE0DC0FE01AF
:10462000ED0DF11D8081803319F499EEF92208C057
:104630001F5FF2FE05C003C08F2D867809F01F5F53
:104640000F2DF3FC14C0F0FE0FC01E1510F09D2CB2
:104650000BC09D2C9E0C911A1E2D06C080E290E08E
:10466000B3010E9497231F5F1E15C0F304C01E15DF
:1046700010F4E11A01C0EE2404FF0FC080E390E0C3
:10468000B3010E94972302FF1DC001FD03C088E70C
:1046900090E00EC088E590E00BC0802F867891F006
:1046A00001FF02C08BE201C080E2F7FC8DE290E0E6
:1046B000B3010E94972306C080E390E0B3010E94FB
:1046C00097239A94D914C0F3DA94F101ED0DF11DFA
:1046D000808190E0B3010E949723DD20A9F706C0F6
:1046E00080E290E0B3010E949723EA94EE20C1F7A4
:1046F00043CEF30166817781CB012B96E2E10C94E6
:104700003520FC010590615070400110D8F780956C
:1047100090958E0F9F1F0895FC016150704001908D
:104720000110D8F7809590958E0F9F1F08950F93D5
:104730001F93CF93DF938C01EB018B8181FF1BC013
:1047400082FF0DC02E813F818C819D812817390702
:1047500064F4E881F9810193F983E88306C0E88570
:10476000F985802F0995892B31F48E819F810196DF
:104770009F838E8302C00FEF1FEFC801DF91CF919F
:104780001F910F910895FA01AA27283051F1203185
:1047900081F1E8946F936E7F6E5F7F4F8F4F9F4FD5
:1047A000AF4FB1E03ED0B4E03CD0670F781F891F17
:1047B0009A1FA11D680F791F8A1F911DA11D6A0FE5
:1047C000711D811D911DA11D20D009F468943F9198
:1047D0002AE0269F11243019305D3193DEF6CF0197
:1047E0000895462F4770405D4193B3E00FD0C9F75D
:1047F000F6CF462F4F70405D4A3318F0495D31FDCA
:104800004052419302D0A9F7EACFB4E0A69597951C
:10481000879577956795BA95C9F7009761057105F2
:1048200008959B01AC010A2E06945795479537953C
:104830002795BA95C9F7620F731F841F951FA01D96
:064840000895F894FFCF7B
:10484600456C656D656E7420616464726573733A58
:104856002025702C2076616C75653A2025640A0047
:1048660025640000000000000000000001020203B1
:1048760003030304040404040404040505050505F0
:1048860005050505050505050505050606060606CD
:1048960006060606060606060606060606060606B2
:1048A600060606060606060606060607070707079D
:1048B6000707070707070707070707070707070782
:1048C6000707070707070707070707070707070772
:1048D6000707070707070707070707070707070762
:1048E600070707070707070707070708080808084D
:1048F6000808080808080808080808080808080832
:104906000808080808080808080808080808080821
:104916000808080808080808080808080808080811
:104926000808080808080808080808080808080801
:1049360008080808080808080808080808080808F1
:1049460008080808080808080808080808080808E1
:1049560008080808080808080808080808080808D1
:1049660008080808080808080808082000BA03000C
:10497600000100FFFF000000000000005F000000D3
:1049860003000300147F147F14242A7F2A122313A2
:1049960008646236495522500005030000001C22B7
:1049A60041000041221C0014083E081408083E0875
:1049B6000800503000000808080808006060000081
:1049C60020100804023E5149453E00427F400072D5
:1049D600494949462141494D331814127F1027454C
:1049E6004545393C4A49493001710905033649496B
:1049F6004936064949291E0036360000005636005B
:104A0600000814224100141414141400412214083E
:104A160002015909063E415D594E7E0909097E7F0C
:104A2600494949363E414141227F4141221C7F4945
:104A36004949417F090909013E4149497A7F0808E8
:104A4600087F00417F41002040413F017F0814223A
:104A5600417F404040407F020C027F7F0408107F68
:104A66003E4141413E7F090909063E4151215E7F93
:104A760009192946464949493101017F01013F404B
:104A860040403F1F2040201F3F4038403F631408EE
:104A9600146307087008076151494543007F414187
:104AA6000002040810200041417F000402010204B4
:104AB600000101010100002010001E2525251E7F92
:104AC6002525251A1E252525121A2525257F1E256D
:104AD60025251E07057F01011E2525251E7F0404A9
:104AE600047F00257F2500204040201F7F040A11F7
:104AF60000007F4040007F0204027F7F0404047FA1
:104B06001E2525251E7F05050502020505057F7F55
:104B1600040404041E2525251204047F04043F40D2
:104B260040403F1F2040201F3F4038403F6314084D
:0C4B3600146307087008076151494543EB
:00000001FF
