:100000000C942A000C948B0E0C94BE0E0C94F10EE2
:100010000C9418090C9445090C94600A0C94920AEB
:100020000C94BF0A0C94EC0A0C94DE0B0C940B0C91
:100030000C9447000C9447000C9447000C94470024
:100040000C9491130C9447000C9447000C944700B7
:100050000C94470011241FBECFE5D8E0DEBFCDBF12
:1000600011E0A0E6B0E0E0ECF7E302C005900D92ED
:10007000A039B107D9F711E0A0E9B1E001C01D92A4
:10008000AE3BB107E1F70E947B170C94DE1B0C948A
:100090000000EF92FF920F931F937B018C0120E0F1
:1000A00030E040E05FE40E94C50388238CF0C80183
:1000B000B70120E030E040E05FE40E94C1010E940F
:1000C000F5039B01AC01205030404040504806C031
:1000D000C801B7010E94F5039B01AC01B901CA0137
:1000E0001F910F91FF90EF900895A0E0B0E0EBE733
:1000F000F0E00C941018DC012B01FA019C91923075
:1001000008F439C1EB018881823008F433C194309E
:1001100069F4843009F02FC111969C91119789815F
:10012000981709F428C1A0E8B0E025C1843009F48B
:1001300021C18230A9F4923009F01DC19A01AD01AC
:1001400088E0EA010990AE01E90109929E0181501F
:10015000C1F7E201898111969C918923818308C1AD
:10016000923009F407C112962D903C901397EB0141
:100170008A819B811496AD90BD90CD90DC901797AD
:10018000EC80FD800E811F819101281B390BB90184
:1001900037FF04C066277727621B730B6032710537
:1001A0000CF061C0121613066CF537014801062EDB
:1001B00004C096948794779467940A94D2F721E0C8
:1001C00030E040E050E004C0220F331F441F551FB1
:1001D0006A95D2F721503040404050402E213F21B7
:1001E00040235123211531054105510521F021E01E
:1001F00030E040E050E079018A01E628F72808293C
:1002000019293CC0232BD1F1260E371E350146019A
:10021000062E04C096948794779467940A94D2F734
:1002200021E030E040E050E004C0220F331F441FC3
:10023000551F6A95D2F721503040404050402A2146
:100240003B214C215D21211531054105510521F04E
:1002500021E030E040E050E059016A01A628B728CB
:10026000C828D9280BC0821593052CF01C01AA249C
:10027000BB24650103C0EE24FF24870111969C91E5
:10028000D20111968C91981709F445C0992339F041
:10029000A80197012A193B094C095D0906C0A6016E
:1002A00095012E193F09400B510B57FD08C01182D3
:1002B0003382228224833583468357831DC081E0A5
:1002C00081833382228288279927DC01821B930B4A
:1002D000A40BB50B84839583A683B7830DC0220F2F
:1002E000331F441F551F24833583468357838281E0
:1002F000938101979383828324813581468157813D
:10030000DA01C9010197A109B1098F5F9F4FAF4F72
:10031000BF4328F30BC0918333822282EA0CFB1C7B
:100320000C1D1D1DE482F5820683178383E0808304
:10033000248135814681578157FF1AC0C901AA27F8
:1003400097FDA095BA2F81709070A070B0705695EF
:10035000479537952795822B932BA42BB52B848318
:100360009583A683B7838281938101969383828349
:10037000DF0101C0D201CD01CDB7DEB7E2E10C94BF
:100380002C18A0E2B0E0E7ECF1E00C941C186983B3
:100390007A838B839C832D833E834F835887E9E048
:1003A000EE2EF12CEC0EFD1ECE010196B7010E943F
:1003B000E6058E010F5E1F4FCE010596B8010E9423
:1003C000E6058A8991E089278A8BC701B801AE01C9
:1003D000475E5F4F0E9475000E941105A096E6E0FF
:1003E0000C943818A0E2B0E0E8EFF1E00C941C188F
:1003F00069837A838B839C832D833E834F835887C5
:10040000F9E0EF2EF12CEC0EFD1ECE010196B701A6
:100410000E94E6058E010F5E1F4FCE010596B801C2
:100420000E94E605C701B801AE01475E5F4F0E941A
:1004300075000E941105A096E6E00C943818A0E221
:10044000B0E0E5E2F2E00C94101869837A838B83C4
:100450009C832D833E834F835887CE010196BE0136
:10046000675F7F4F0E94E605CE010596BE016F5E75
:100470007F4F0E94E6059985923088F08989823005
:10048000C8F0943019F4823051F404C0843029F457
:10049000923081F480E890E0C6C0923049F420E0C8
:1004A0009A858A89981321E02A87CE010996BBC0D4
:1004B000823049F420E09A858A89981321E02A8BBA
:1004C000CE014196B0C02D843E844F8458886D88FB
:1004D0007E888F88988CEE24FF248701AA24BB2471
:1004E000650140E050E060E070E0E0E0F0E0C10174
:1004F00081709070892BE9F0E60CF71C081D191D1E
:100500009A01AB012A0D3B1D4C1D5D1D80E090E062
:10051000A0E0B0E0E614F7040805190520F481E036
:1005200090E0A0E0B0E0BA01A901480F591F6A1F8E
:100530007B1FAA0CBB1CCC1CDD1C97FE08C081E0F5
:1005400090E0A0E0B0E0A82AB92ACA2ADB2A3196B6
:10055000E032F10549F0660C771C881C991C569412
:10056000479437942794C3CFFA85EA892B893C892D
:100570008B859C85280F391F2E5F3F4F17C0CA01FE
:1005800081709070892B61F016950795F794E79428
:1005900080E090E0A0E0B0E8E82AF92A0A2B1B2BC3
:1005A00076956795579547952F5F3F4F77FDE7CF36
:1005B0000CC0440F551F661F771F17FD4160EE0CDE
:1005C000FF1C001F111F21503040403090E05907A0
:1005D00090E0690790E4790760F32B8F3C8FDB0193
:1005E000CA018F779070A070B07080349105A1051A
:1005F000B10561F447FD0AC0E114F10401051105DC
:1006000029F0405C5F4F6F4F7F4F40781A8EFE1786
:1006100011F081E08A8F4D8F5E8F6F8F78A383E01A
:10062000898FCE0149960E941105A096E2E10C94B3
:100630002C18A8E1B0E0EFE1F3E00C9418186983FE
:100640007A838B839C832D833E834F835887B9E0C5
:10065000EB2EF12CEC0EFD1ECE010196B7010E948F
:10066000E6058E010F5E1F4FCE010596B8010E9470
:10067000E6052985223008F47EC03989323010F42D
:10068000B8017CC08A859A8989278A87243011F02D
:10069000223031F4231709F06EC060E870E06EC0BC
:1006A000343039F41D861E861F86188A1C861B86E8
:1006B00004C0323021F484E08987B7015FC02B8504
:1006C0003C858B899C89281B390B3C872B87ED84C3
:1006D000FE840F851889AD88BE88CF88D88CEA142F
:1006E000FB040C051D0540F4EE0CFF1C001F111F40
:1006F000215030403C872B8720E030E040E050E044
:1007000080E090E0A0E0B0E460E070E0EA14FB0478
:100710000C051D0540F0282B392B4A2B5B2BEA18C2
:10072000FB080C091D09B695A79597958795EE0CC2
:10073000FF1C001F111F6F5F7F4F6F31710531F775
:10074000DA01C9018F779070A070B0708034910584
:10075000A105B10561F427FD0AC0E114F10401050A
:10076000110529F0205C3F4F4F4F5F4F20782D87B8
:100770003E874F87588BBE01675F7F4FCB010E943A
:1007800011056896EAE00C943418A8E1B0E0EBECAF
:10079000F3E00C941C1869837A838B839C832D83EC
:1007A0003E834F83588789E0E82EF12CEC0EFD1E26
:1007B000CE010196B7010E94E6058E010F5E1F4F24
:1007C000CE010596B8010E94E6058985823040F089
:1007D0008989823028F0C701B8010E945E0601C0F5
:1007E0008FEF6896E6E00C943818ACE0B0E0EBEFE1
:1007F000F3E00C94201869837A838B839C83CE0169
:100800000196BE016B5F7F4F0E94E6058D818230AD
:1008100061F1823050F1843021F48E81882351F1CE
:100820002EC02F81388537FD20C06E812F313105D4
:100830001CF06623F9F023C08EE190E0821B930B3D
:1008400029853A854B855C8504C056954795379533
:1008500027958A95D2F76623B1F05095409530954B
:1008600021953F4F4F4F5F4F0EC020E030E040E0FA
:1008700050E009C02FEF3FEF4FEF5FE704C020E0EB
:1008800030E040E050E8B901CA012C96E2E00C9457
:100890003C18A8E0B0E0EFE4F4E00C9418187B01F9
:1008A0008C01611571058105910519F482E0898338
:1008B00060C083E089838EE1C82ED12CDC82CB829C
:1008C000ED82FE820F831887C801B7010E94C2041F
:1008D000FC013197F7FF3BC0222733272E1B3F0B2C
:1008E00057016801022E04C0D694C794B794A79408
:1008F0000A94D2F740E050E060E070E081E090E0E0
:10090000A0E0B0E004C0880F991FAA1FBB1F2A9562
:10091000D2F70197A109B1098E219F21A023B1230C
:100920000097A105B10521F041E050E060E070E0E2
:100930004A295B296C297D294D835E836F837887E3
:100940008EE190E08E1B9F0B9C838B8312C03097AF
:1009500081F00E2E04C0EE0CFF1C001F111F0A9424
:10096000D2F7ED82FE820F831887CE1ADF0ADC826F
:10097000CB821A82CE0101960E9411052896EAE0E8
:100980000C943418EF92FF920F931F937B018C010C
:1009900080E0E81680E0F80681E0080780E01807AC
:1009A00088F48FEFE816F1040105110531F028F005
:1009B00088E090E0A0E0B0E017C080E090E0A0E028
:1009C000B0E012C080E0E81680E0F80680E008079A
:1009D00081E0180728F088E190E0A0E0B0E004C0D2
:1009E00080E190E0A0E0B0E020E230E040E050E0C4
:1009F000281B390B4A0B5B0B04C016950795F7941F
:100A0000E7948A95D2F7F701E857FF4F8081281BBA
:100A1000310941095109C9011F910F91FF90EF90D0
:100A20000895DF92EF92FF920F931F93FC01E480F1
:100A3000F58006811781D1808081823048F480E082
:100A400090E0A0E1B0E0E82AF92A0A2B1B2BA5C010
:100A5000843009F49FC0823021F4EE24FF24870102
:100A600005C0E114F1040105110519F4E0E0F0E01E
:100A700096C0628173819FEF623879070CF05BC08A
:100A800022E83FEF261B370B2A3131052CF020E0FE
:100A900030E040E050E02AC0B801A701022E04C0B7
:100AA00076956795579547950A94D2F781E090E03F
:100AB000A0E0B0E004C0880F991FAA1FBB1F2A95B1
:100AC000D2F70197A109B1098E219F21A023B1235B
:100AD0000097A105B10521F081E090E0A0E0B0E031
:100AE0009A01AB01282B392B4A2B5B2BDA01C90168
:100AF0008F779070A070B07080349105A105B1051A
:100B000039F427FF09C0205C3F4F4F4F5F4F04C0AF
:100B1000215C3F4F4F4F5F4FE0E0F0E02030A0E01E
:100B20003A07A0E04A07A0E45A0710F0E1E0F0E03D
:100B300079018A0127C06038710564F5FB01E1582D
:100B4000FF4FD801C7018F779070A070B0708034CC
:100B50009105A105B10539F4E7FE0DC080E490E0F0
:100B6000A0E0B0E004C08FE390E0A0E0B0E0E80EC9
:100B7000F91E0A1F1B1F17FF05C016950795F7944E
:100B8000E794319687E016950795F794E7948A9550
:100B9000D1F705C0EE24FF248701EFEFF0E06E2FC0
:100BA000679566276795902F9F77D794DD24D79414
:100BB0008E2F8695492F462B582F5D29B701CA01E4
:100BC0001F910F91FF90EF90DF900895FC01DB01E2
:100BD000408151812281622F6F7770E0221F22278E
:100BE000221F9381892F880F822B282F30E0991F95
:100BF0009927991F11969C93119721153105A9F5F5
:100C0000411551056105710511F482E037C082E894
:100C10009FEF13969C938E9312979A01AB0167E016
:100C2000220F331F441F551F6A95D1F783E08C9321
:100C30000DC0220F331F441F551F12968D919C919A
:100C40001397019713969C938E931297203080E010
:100C5000380780E0480780E4580758F314962D932E
:100C60003D934D935C93179708952F3F310579F489
:100C7000411551056105710519F484E08C930895BF
:100C800064FF03C081E08C9312C01C9210C02F57E8
:100C9000304013963C932E93129783E08C9387E019
:100CA000440F551F661F771F8A95D1F770641496FD
:100CB0004D935D936D937C93179708951F93DC017B
:100CC000FB019C91923008F447C08081823008F487
:100CD00043C0943051F411961C91843099F5818170
:100CE000682F70E0611B71093FC0843021F09230A1
:100CF00031F48230B9F18181882389F12DC01196B8
:100D00001C9111978230F1F081811817D9F4129655
:100D10002D913C911397828193818217930794F0D0
:100D200028173907BCF014968D919D910D90BC91B8
:100D3000A02D2481358146815781281739074A071C
:100D40005B0718F4112341F00AC082179307A40728
:100D5000B50740F4112319F061E070E005C06FEFB2
:100D60007FEF02C060E070E0CB011F910895DF9338
:100D7000CF9300D0CDB7DEB79A83898380E00F9000
:100D80000F90CF91DF910895DF93CF9300D00F9212
:100D9000CDB7DEB79A838983E981FA818081918119
:100DA0001B82009711F481E08B838B810F900F9051
:100DB0000F90CF91DF910895DF93CF9300D00F92E2
:100DC000CDB7DEB79B838A8319828A819B81009786
:100DD00061F0EA81FB811282138214821582EA811A
:100DE000FB811182108281E0898389810F900F90AD
:100DF0000F90CF91DF910895DF93CF93CDB7DEB7FA
:100E000027970FB6F894DEBF0FBECDBF9D838C83AE
:100E10007F836E831B8284E090E00E9447189A8350
:100E200089838C819D81009759F18C819D810E94DD
:100E3000B706882329F5E981FA818E819F81938302
:100E40008283EC81FD8180819181E981FA819183A6
:100E50008083EC81FD8189819A8191838083EC81FB
:100E6000FD8182819381A481B5810196A11DB11D6F
:100E7000EC81FD8182839383A483B58381E08B839E
:100E80008B8127960FB6F894DEBF0FBECDBFCF91F2
:100E9000DF910895DF93CF93CDB7DEB727970FB6D5
:100EA000F894DEBF0FBECDBF9D838C837F836E839E
:100EB0001B821A8219828C819D810097D9F18E81C3
:100EC0009F810097B9F18C819D810E94C40688237F
:100ED00089F5EC81FD810190F081E02D8281938183
:100EE000EE81FF8191838083EC81FD8180819181FE
:100EF0009B838A83EC81FD810190F081E02D8081CC
:100F00009181EC81FD81918380838A819B810E9404
:100F1000F418EC81FD8182819381A481B5810197D0
:100F2000A109B109EC81FD8182839383A483B583F8
:100F300081E08983898127960FB6F894DEBF0FBEC2
:100F4000CDBFCF91DF910895DF93CF9300D000D034
:100F50000F92CDB7DEB79D838C831B821A821982D4
:100F60008C819D81009799F1EC81FD818081918137
:100F70009A83898326C0E981FA8140815181E98180
:100F8000FA812281338100D000D000D0EDB7FEB7C6
:100F9000319680E690E0918380835383428335834A
:100FA00024830E944C198DB79EB706960FB6F8940D
:100FB0009EBF0FBE8DBFE981FA81808191819A83A6
:100FC000898389819A810097B1F681E08B838B8137
:100FD0000F900F900F900F900F90CF91DF91089589
:100FE000DF93CF9300D000D00F92CDB7DEB79D83B3
:100FF0008C831B821A821982EC81FD818081918110
:101000009A8389838C819D810097F9F012C0E981D0
:10101000FA81808191819A838983EC81FD8180812D
:1010200091810E94F418EC81FD8189819A819183DC
:10103000808389819A81009751F7EC81FD8112822A
:1010400013821482158281E08B838B810F900F9025
:101050000F900F900F90CF91DF910895DF93CF9372
:1010600000D000D00F92CDB7DEB79B838A837D83FB
:101070006C8319828A819B81009761F0EA81FB81F0
:1010800082819381A481B581EC81FD8191838083EC
:1010900081E0898389810F900F900F900F900F90BE
:1010A000CF91DF910895DF93CF9300D00F92CDB70A
:1010B000DEB78B831A8219828B81882F90E0982F5C
:1010C00088279A83898389819A8124E630E0B9014F
:1010D0000E94BF17CB019A838983E3E4F0E0898102
:1010E00080830F900F900F90CF91DF910895DF9341
:1010F000CF9300D000D0CDB7DEB79C838B831A820C
:10110000198210C0E8E5F0E0808180788823D1F36F
:10111000E8E5F0E080818068808389819A8101968A
:101120009A83898329813A818B819C812817390789
:1011300048F30F900F900F900F90CF91DF9108958B
:10114000DF93CF93CDB7DEB7E5E4F0E08081887F11
:1011500084608083E5E4F0E080818F7B8083E5E438
:10116000F0E0808188608083E5E4F0E080818F7C1E
:1011700080618083E9E5F0E0808180688083CF91A1
:10118000DF910895DF93CF930F92CDB7DEB78983B8
:10119000E4E4F0E0898180830F90CF91DF9108959E
:1011A000DF93CF930F92CDB7DEB78983E3E4F0E00E
:1011B000898180830F90CF91DF910895DF93CF9342
:1011C00000D00F92CDB7DEB79B838A8319828A81C4
:1011D0009B81009719F481E0898306C08A819B81F5
:1011E000909393018093920189810F900F900F90BB
:1011F000CF91DF910895DF93CF9300D00F92CDB7B9
:10120000DEB79B838A8319828A819B81009719F4B8
:1012100081E0898306C08A819B81909391018093AC
:10122000900189810F900F900F90CF91DF910895D9
:101230001F920F920FB60F9211242F933F934F934B
:101240005F936F937F938F939F93AF93BF93EF932E
:10125000FF93DF93CF93CDB7DEB7E0919001F0918C
:1012600091010995CF91DF91FF91EF91BF91AF91DE
:101270009F918F917F916F915F914F913F912F91AE
:101280000F900FBE0F901F9018951F920F920FB6E0
:101290000F9211242F933F934F935F936F937F93FC
:1012A0008F939F93AF93BF93EF93FF93DF93CF936E
:1012B000CDB7DEB7E0919201F09193010995CF91FE
:1012C000DF91FF91EF91BF91AF919F918F917F91AE
:1012D0006F915F914F913F912F910F900FBE0F90A3
:1012E0001F901895DF93CF93CDB7DEB7EEE4F0E013
:1012F0008081887F84608083EFE4F0E080818C7F50
:101300008083EEE4F0E08081877E88608083EFE474
:10131000F0E080818F738083EFE4F0E080818F7C48
:101320008083E9E5F0E0808180618083CF91DF9167
:101330000895DF93CF9300D0CDB7DEB79A8389832A
:10134000EAE4F0E089819A81918380830F900F9085
:10135000CF91DF910895DF93CF9300D0CDB7DEB763
:101360009A838983E8E4F0E089819A81918380837C
:101370000F900F90CF91DF910895DF93CF9300D01E
:10138000CDB7DEB79A838983E6E4F0E089819A815C
:10139000918380830F900F90CF91DF910895DF9319
:1013A000CF9300D0CDB7DEB79A838983ECE4F0E029
:1013B00089819A81918380830F900F90CF91DF91E3
:1013C0000895DF93CF93CDB7DEB7ECE4F0E08081F2
:1013D0009181CF91DF910895DF93CF9300D00F9249
:1013E000CDB7DEB79B838A8319828A819B81009760
:1013F00019F481E0898306C08A819B8190939501CD
:101400008093940189810F900F900F90CF91DF917D
:101410000895DF93CF9300D00F92CDB7DEB79B83B3
:101420008A8319828A819B81009719F481E08983DC
:1014300006C08A819B819093970180939601898150
:101440000F900F900F90CF91DF910895DF93CF937E
:1014500000D00F92CDB7DEB79B838A8319828A8131
:101460009B81009719F481E0898306C08A819B8162
:10147000909399018093980189810F900F900F901C
:10148000CF91DF910895DF93CF9300D00F92CDB726
:10149000DEB79B838A8319828A819B81009719F426
:1014A00081E0898306C08A819B8190939B01809310
:1014B0009A0189810F900F900F90CF91DF9108953D
:1014C0001F920F920FB60F9211242F933F934F93B9
:1014D0005F936F937F938F939F93AF93BF93EF939C
:1014E000FF93DF93CF93CDB7DEB7E0919A01F091F0
:1014F0009B010995E8E5F0E0808180628083CF91CF
:10150000DF91FF91EF91BF91AF919F918F917F916B
:101510006F915F914F913F912F910F900FBE0F9060
:101520001F9018951F920F920FB60F9211242F93B0
:101530003F934F935F936F937F938F939F93AF935B
:10154000BF93EF93FF93DF93CF93CDB7DEB7E091D7
:101550009401F09195010995CF91DF91FF91EF9161
:10156000BF91AF919F918F917F916F915F914F91BB
:101570003F912F910F900FBE0F901F9018951F92C3
:101580000F920FB60F9211242F933F934F935F93B7
:101590006F937F938F939F93AF93BF93EF93FF933B
:1015A000DF93CF93CDB7DEB7E0919601F09197012D
:1015B0000995CF91DF91FF91EF91BF91AF919F91ED
:1015C0008F917F916F915F914F913F912F910F90EC
:1015D0000FBE0F901F9018951F920F920FB60F928B
:1015E00011242F933F934F935F936F937F938F9328
:1015F0009F93AF93BF93EF93FF93DF93CF93CDB7B9
:10160000DEB7E0919801F09199010995CF91DF91B2
:10161000FF91EF91BF91AF919F918F917F916F91CA
:101620005F914F913F912F910F900FBE0F901F90A0
:101630001895DF93CF9300D00F92CDB7DEB78B8391
:101640001A8219828B81882F90E0982F88279A839D
:10165000898389819A8124E630E0B9010E94BF170D
:10166000CB019A838983ECE5F0E0898180830F9038
:101670000F900F90CF91DF910895DF93CF9300D01B
:1016800000D0CDB7DEB79C838B831A82198210C03D
:10169000E8E5F0E0808182708823D1F3E8E5F0E0AE
:1016A00080818260808389819A8101969A8389836F
:1016B00029813A818B819C812817390748F30F9043
:1016C0000F900F900F90CF91DF910895DF93CF93FC
:1016D000CDB7DEB7E3E5F0E08081887F826080836C
:1016E000E3E5F0E0808180648083E3E5F0E08081E1
:1016F00088608083E3E5F0E080818F7C8062808376
:10170000E9E5F0E0808182608083CF91DF910895E8
:10171000DF93CF930F92CDB7DEB78983E2E5F0E098
:10172000898180830F90CF91DF910895DF93CF93CC
:101730000F92CDB7DEB78983ECE5F0E08981808335
:101740000F90CF91DF910895DF93CF9300D00F9248
:10175000CDB7DEB79B838A8319828A819B810097EC
:1017600019F481E0898306C08A819B8190939F014F
:1017700080939E0189810F900F900F90CF91DF9100
:101780000895DF93CF9300D00F92CDB7DEB79B8340
:101790008A8319828A819B81009719F481E0898369
:1017A00006C08A819B8190939D0180939C018981D1
:1017B0000F900F900F90CF91DF9108951F920F928D
:1017C0000FB60F9211242F933F934F935F936F9314
:1017D0007F938F939F93AF93BF93EF93FF93DF9389
:1017E000CF93CDB7DEB7E0919C01F0919D010995B3
:1017F000CF91DF91FF91EF91BF91AF919F918F9129
:101800007F916F915F914F913F912F910F900FBEFC
:101810000F901F9018951F920F920FB60F921124E0
:101820002F933F934F935F936F937F938F939F93E8
:10183000AF93BF93EF93FF93DF93CF93CDB7DEB713
:10184000E0919E01F0919F010995CF91DF91FF9169
:10185000EF91BF91AF919F918F917F916F915F9128
:101860004F913F912F910F900FBE0F901F901895A1
:10187000DF93CF93CDB7DEB7EAE3F0E08FEF80835D
:10188000E7E3F0E087E08083E4E3F0E087E0808353
:10189000E1E3F0E01082EBE3F0E01082E8E3F0E057
:1018A0001082E5E3F0E01082E2E3F0E01082CF91F5
:1018B000DF910895DF93CF93CDB7DEB7AFE5B0E00A
:1018C000EFE5F0E0808180688C93CF91DF910895FF
:1018D000DF93CF93CDB7DEB7AFE5B0E0EFE5F0E053
:1018E00080818F778C93CF91DF910895DF93CF9391
:1018F000CDB7DEB7A5E5B0E0E5E5F0E08081816039
:101900008C93A5E5B0E0E5E5F0E080818D7F8C93D8
:10191000ABE5B0E0EBE5F0E0808180648C93CF91A3
:10192000DF910895DF93CF93CDB7DEB7A5E5B0E0A3
:10193000E5E5F0E0808184608C93A5E5B0E0E5E525
:10194000F0E08081877F8C93CF91DF910895DF93C2
:10195000CF93CDB7DEB7A4E5B0E0E4E5F0E0808159
:101960008F7B8C93CF91DF910895DF93CF93CDB789
:10197000DEB729970FB6F894DEBF0FBECDBF8A83BE
:101980006B8319828A81813009F05EC08B81282F98
:1019900030E039872887888599858130910521F144
:1019A00028853985223031052CF488859985009762
:1019B00061F047C0288539852230310521F18885BD
:1019C00099858330910571F13CC0A5E5B0E0E5E56E
:1019D000F0E080818E7F8C93A5E5B0E0E5E5F0E056
:1019E00080818D7F8C93BAC0A5E5B0E0E5E5F0E09D
:1019F000808181608C93A5E5B0E0E5E5F0E0808131
:101A00008D7F8C93ABC0A5E5B0E0E5E5F0E080818B
:101A10008E7F8C93A5E5B0E0E5E5F0E08081826003
:101A20008C939CC0A5E5B0E0E5E5F0E080818160A5
:101A30008C93A5E5B0E0E5E5F0E0808182608C93D1
:101A40008DC081E089838AC08A81823009F05EC0BE
:101A50008B81282F30E03F832E838E819F818130C0
:101A6000910521F12E813F81223031052CF48E81A8
:101A70009F81009761F047C02E813F812230310560
:101A800021F18E819F818330910571F13CC0A5E5E4
:101A9000B0E0E5E5F0E080818B7F8C93A5E5B0E0D8
:101AA000E5E5F0E08081877F8C9358C0A5E5B0E044
:101AB000E5E5F0E0808184608C93A5E5B0E0E5E5A4
:101AC000F0E08081877F8C9349C0A5E5B0E0E5E533
:101AD000F0E080818B7F8C93A5E5B0E0E5E5F0E058
:101AE000808188608C933AC0A5E5B0E0E5E5F0E040
:101AF000808184608C93A5E5B0E0E5E5F0E080812D
:101B000088608C932BC081E0898328C08A818330D0
:101B100019F58B81282F30E03D832C838C819D81AA
:101B20008230910531F02C813D812330310549F01F
:101B300010C0A4E5B0E0E4E5F0E080818F7B8C93F9
:101B40000DC0A4E5B0E0E4E5F0E0808180648C9312
:101B500005C081E0898302C081E08983898129965B
:101B60000FB6F894DEBF0FBECDBFCF91DF910895C1
:101B7000DF93CF9300D000D0CDB7DEB78A83198230
:101B80008A81282F30E03C832B838B819C8182309B
:101B9000910591F02B813C8123303105A9F08B8197
:101BA0009C8181309105C1F4ABE5B0E0EBE5F0E05C
:101BB000808180648C9312C0ABE5B0E0EBE5F0E08F
:101BC000808180688C930AC0ABE5B0E0EBE5F0E083
:101BD000808180628C9302C081E0898389810F902B
:101BE0000F900F900F90CF91DF910895DF93CF93D7
:101BF00000D000D0CDB7DEB78A8319828A81282F22
:101C000030E03C832B838B819C818230910591F065
:101C10002B813C8123303105A9F08B819C8181305F
:101C20009105C1F4ABE5B0E0EBE5F0E080818F7B9E
:101C30008C9312C0ABE5B0E0EBE5F0E080818F77EC
:101C40008C930AC0ABE5B0E0EBE5F0E080818F7DDE
:101C50008C9302C081E0898389810F900F900F904F
:101C60000F90CF91DF910895DF93CF9300D00F9223
:101C7000CDB7DEB79B838A8319828A819B810097C7
:101C800039F08A819B819093A1018093A00102C0C9
:101C900082E0898389810F900F900F90CF91DF911F
:101CA0000895DF93CF9300D00F92CDB7DEB79B831B
:101CB0008A8319828A819B81009739F08A819B816E
:101CC0009093A3018093A20102C082E0898389815D
:101CD0000F900F900F90CF91DF910895DF93CF93E6
:101CE00000D00F92CDB7DEB79B838A8319828A8199
:101CF0009B81009739F08A819B819093A501809305
:101D0000A40102C082E0898389810F900F900F9017
:101D1000CF91DF9108951F920F920FB60F92112469
:101D20002F933F934F935F936F937F938F939F93E3
:101D3000AF93BF93EF93FF93DF93CF93CDB7DEB70E
:101D40008091A0019091A101009729F0E091A0015C
:101D5000F091A1010995CF91DF91FF91EF91BF9192
:101D6000AF919F918F917F916F915F914F913F9133
:101D70002F910F900FBE0F901F9018951F920F92EA
:101D80000FB60F9211242F933F934F935F936F934E
:101D90007F938F939F93AF93BF93EF93FF93DF93C3
:101DA000CF93CDB7DEB78091A2019091A3010097A8
:101DB00029F0E091A201F091A3010995CF91DF9163
:101DC000FF91EF91BF91AF919F918F917F916F9113
:101DD0005F914F913F912F910F900FBE0F901F90E9
:101DE00018951F920F920FB60F9211242F933F93C5
:101DF0004F935F936F937F938F939F93AF93BF9313
:101E0000EF93FF93DF93CF93CDB7DEB78091A4011B
:101E10009091A501009729F0E091A401F091A5010E
:101E20000995CF91DF91FF91EF91BF91AF919F9174
:101E30008F917F916F915F914F913F912F910F9073
:101E40000FBE0F901F901895DF93CF9300D000D056
:101E50000F92CDB7DEB78A836B8319828A81843073
:101E600018F081E0898332C08A81282F30E03D83D9
:101E70002C838C819D8181309105D1F02C813D8115
:101E8000223031052CF48C819D81009761F01EC0B9
:101E90002C813D812230310581F08C819D81833000
:101EA000910581F013C0EBE3F0E08B8180830EC0DD
:101EB000E8E3F0E08B81808309C0E5E3F0E08B810B
:101EC000808304C0E2E3F0E08B81808389810F90FE
:101ED0000F900F900F900F90CF91DF910895DF93A7
:101EE000CF93CDB7DEB728970FB6F894DEBF0FBEFD
:101EF000CDBF8A836B834C8319828A81843018F02A
:101F000081E08983F0C08B81883018F081E089837B
:101F1000EAC08C81813009F06FC08A81282F30E0BF
:101F200038872F838F8198858130910549F12F81E2
:101F30003885223031052CF48F819885009761F027
:101F4000D2C02F8138852230310571F18F8198857B
:101F500083309105E9F1C7C0ABE3B0E0EBE3F0E01B
:101F60008081482F8B81282F30E081E090E0022E85
:101F700002C0880F991F0A94E2F7842B8C93B3C098
:101F8000A8E3B0E0E8E3F0E08081482F8B81282FC0
:101F900030E081E090E0022E02C0880F991F0A9481
:101FA000E2F7842B8C939FC0A5E3B0E0E5E3F0E07B
:101FB0008081482F8B81282F30E081E090E0022E35
:101FC00002C0880F991F0A94E2F7842B8C938BC070
:101FD000A2E3B0E0E2E3F0E08081482F8B81282F7C
:101FE00030E081E090E0022E02C0880F991F0A9431
:101FF000E2F7842B8C9377C08C81882309F073C01F
:102000008A81282F30E03E832D838D819E8181300F
:10201000910559F12D813E81223031052CF48D81BD
:102020009E81009769F05FC02D813E81223031058D
:1020300089F18D819E818330910509F440C053C0A0
:10204000ABE3B0E0EBE3F0E08081482F8B81282FF9
:1020500030E081E090E0022E02C0880F991F0A94C0
:10206000E2F7809584238C933EC0A8E3B0E0E8E3D8
:10207000F0E08081482F8B81282F30E081E090E0D4
:10208000022E02C0880F991F0A94E2F780958423DC
:102090008C9329C0A5E3B0E0E5E3F0E08081482F10
:1020A0008B81282F30E081E090E0022E02C0880F63
:1020B000991F0A94E2F7809584238C9314C0A2E3BD
:1020C000B0E0E2E3F0E08081482F8B81282F30E000
:1020D00081E090E0022E02C0880F991F0A94E2F777
:1020E000809584238C93898128960FB6F894DEBF5F
:1020F0000FBECDBFCF91DF910895DF93CF9300D076
:1021000000D00F92CDB7DEB78A836B8319828A81A4
:10211000843018F083E0898332C08A81282F30E030
:102120003D832C838C819D8181309105D1F02C8160
:102130003D81223031052CF48C819D81009761F026
:102140001EC02C813D812230310581F08C819D8122
:102150008330910581F013C0EAE3F0E08B81808346
:102160000EC0E7E3F0E08B81808309C0E4E3F0E098
:102170008B81808304C0E1E3F0E08B8180838981DF
:102180000F900F900F900F900F90CF91DF910895C7
:10219000DF93CF93CDB7DEB728970FB6F894DEBFA5
:1021A0000FBECDBF8A836B834C8319828A818430B2
:1021B00018F083E08983F0C08B81883018F083E0C9
:1021C0008983EAC08C81882309F074C08A81282F12
:1021D00030E038872F838F8198858130910559F1C0
:1021E0002F813885223031052CF48F819885009716
:1021F00069F0D2C02F8138852230310589F18F8175
:1022000098858330910509F440C0C6C0AAE3B0E0C8
:10221000EAE3F0E08081482F8B81282F30E081E0D5
:1022200090E0022E02C0880F991F0A94E2F7809571
:1022300084238C93B1C0A7E3B0E0E7E3F0E08081B2
:10224000482F8B81282F30E081E090E0022E02C0E1
:10225000880F991F0A94E2F7809584238C939CC081
:10226000A4E3B0E0E4E3F0E08081482F8B81282FE5
:1022700030E081E090E0022E02C0880F991F0A949E
:10228000E2F7809584238C9387C0A1E3B0E0E1E37B
:10229000F0E08081482F8B81282F30E081E090E0B2
:1022A000022E02C0880F991F0A94E2F780958423BA
:1022B0008C9372C08C81813009F06EC08A81282F86
:1022C00030E03E832D838D819E818130910549F1DF
:1022D0002D813E81223031052CF48D819E81009725
:1022E00061F05AC02D813E812230310571F18D811E
:1022F0009E8183309105E9F14FC0AAE3B0E0EAE3A3
:10230000F0E08081482F8B81282F30E081E090E041
:10231000022E02C0880F991F0A94E2F7842B8C9337
:102320003BC0A7E3B0E0E7E3F0E08081482F8B817A
:10233000282F30E081E090E0022E02C0880F991F24
:102340000A94E2F7842B8C9327C0A4E3B0E0E4E383
:10235000F0E08081482F8B81282F30E081E090E0F1
:10236000022E02C0880F991F0A94E2F7842B8C93E7
:1023700013C0A1E3B0E0E1E3F0E08081482F8B815E
:10238000282F30E081E090E0022E02C0880F991FD4
:102390000A94E2F7842B8C93898128960FB6F894DF
:1023A000DEBF0FBECDBFCF91DF910895DF93CF93F6
:1023B000CDB7DEB727970FB6F894DEBF0FBECDBFFF
:1023C0008A836B835D834C8319828A81843018F001
:1023D00082E0898376C08B81883018F082E089831F
:1023E00070C08A81282F30E03F832E834E815F8129
:1023F0004130510559F18E819F818230910534F42D
:102400002E813F812115310569F05BC04E815F81CE
:102410004230510579F18E819F818330910509F415
:102420003DC04FC0E9E3F0E08081282F30E08B8190
:10243000882F90E0A90102C0559547958A95E2F74B
:10244000CA018170EC81FD8180833BC0E6E3F0E04E
:102450008081282F30E08B81882F90E0A90102C075
:10246000559547958A95E2F7CA018170EC81FD8107
:10247000808327C0E3E3F0E08081282F30E08B8168
:10248000882F90E0A90102C0559547958A95E2F7FB
:10249000CA018170EC81FD81808313C0E0E3F0E02C
:1024A0008081282F30E08B81882F90E0A90102C025
:1024B000559547958A95E2F7CA018170EC81FD81B7
:1024C0008083898127960FB6F894DEBF0FBECDBFFB
:1024D000CF91DF910895DF93CF9300D000D000D04B
:1024E000CDB7DEB78A837C836B8319828A8184307F
:1024F00018F081E089833AC08A81282F30E03E833A
:102500002D838D819E8181309105E1F02D813E8169
:10251000223031052CF48D819E81009761F026C018
:102520002D813E8122303105A1F08D819E81833045
:102530009105B1F01BC0E9E3F0E08081EB81FC8103
:10254000808314C0E6E3F0E08081EB81FC8180832E
:102550000DC0E3E3F0E08081EB81FC81808306C065
:10256000E0E3F0E08081EB81FC8180838981269625
:102570000FB6F894DEBF0FBECDBFCF91DF910895A7
:10258000DF93CF93CDB7DEB7E6E2F0E08081887FBE
:1025900083608083E7E2F0E080818F7380648083D2
:1025A000E7E2F0E080818F7D8083E6E2F0E08081E9
:1025B00080628083E0E5F0E080818F7180688083B5
:1025C000E6E2F0E0808180688083CF91DF9108951A
:1025D000DF93CF93CDB7DEB728970FB6F894DEBF61
:1025E0000FBECDBF8E8378876F831D8219821A82BA
:1025F0001B821C828F819885009719F481E08D835E
:102600004AC08E81883018F082E08D8344C0E7E2B2
:10261000F0E08E818F71982F9F718081807E892B51
:1026200080830BC089819A81AB81BC810196A11DF9
:10263000B11D89839A83AB83BC83E6E2F0E080819D
:102640008071882361F489819A81AB81BC81843F48
:1026500021E0920720E0A20720E0B20718F3898169
:102660009A81AB81BC81843F21E0920720E0A207E0
:1026700020E0B20719F483E08D830DC0E6E2F0E0BC
:10268000808180618083E4E2F0E080819181EF814C
:10269000F885918380838D8128960FB6F894DEBFEC
:1026A0000FBECDBFCF91DF910895DF93CF9300D0C0
:1026B00000D000D0CDB7DEB78A837C836B835E8386
:1026C0004D8319828D819E81009719F481E0898361
:1026D0001EC08A81883018F082E0898318C08B81FF
:1026E0009C81009719F481E0898311C08B819C81C2
:1026F0009093A7018093A6018D819E819093A9015B
:102700008093A801E6E2F0E080818860808389817F
:1027100026960FB6F894DEBF0FBECDBFCF91DF91E6
:1027200008951F920F920FB60F9211242F933F938B
:102730004F935F936F937F938F939F93AF93BF93C9
:10274000EF93FF93DF93CF93CDB7DEB7A091A801AE
:10275000B091A901E4E2F0E0808191818D939C9396
:10276000E091A601F091A7010995CF91DF91FF912A
:10277000EF91BF91AF919F918F917F916F915F91F9
:102780004F913F912F910F900FBE0F901F90189572
:10279000DF93CF93CDB7DEB72C970FB6F894DEBF9B
:1027A0000FBECDBF9C878B8784E690E09E838D8390
:1027B0002B853C858D819E81AC01249FC001259F86
:1027C000900D349F900D1124CC01A0E0B0E08983DE
:1027D0009A83AB83BC831F82188619861A860BC026
:1027E0008F819885A985BA850196A11DB11D8F831A
:1027F0009887A987BA872F81388549855A85898125
:102800009A81AB81BC81281739074A075B0740F3DF
:102810002C960FB6F894DEBF0FBECDBFCF91DF91DF
:102820000895DF93CF930F92CDB7DEB7898381E010
:1028300060E040E00E946F0F81E061E040E00E94B4
:102840006F0F80E069810E94240F81E062E041E027
:102850000E946F0F82E090E00E94C81381E062E066
:1028600040E00E946F0F0F90CF91DF910895DF93AA
:10287000CF93CDB7DEB788E290E00E94C81388E31B
:102880000E9411148CE00E94111481E00E94111426
:10289000CF91DF910895DF93CF930F92CDB7DEB73D
:1028A000898381E060E041E00E946F0F81E061E098
:1028B00040E00E946F0F80E069810E94240F81E058
:1028C00062E041E00E946F0F82E090E00E94C81336
:1028D00081E062E040E00E946F0F0F90CF91DF91A6
:1028E0000895DF93CF9300D00F92CDB7DEB79B83CF
:1028F0008A8319820EC08981282F30E08A819B81CA
:10290000FC01E20FF31F80810E944B1489818F5FCD
:1029100089838981282F30E08A819B81FC01E20F25
:10292000F31F8081882339F70F900F900F90CF917C
:10293000DF910895DF93CF9300D00F92CDB7DEB72C
:102940008A836B838A81882319F48B81898306C0EB
:102950008A81813019F48B81805C898389818068C8
:102960000E9411140F900F900F90CF91DF91089556
:102970000F931F93DF93CF93CDB7DEB760970FB65A
:10298000F894DEBF0FBECDBF6D877E878F87988B93
:102990008D859E85AF85B889BB2394F48DE20E9416
:1029A0004B148D859E85AF85B889B095A09590957F
:1029B00081959F4FAF4FBF4F8D879E87AF87B88B55
:1029C0008D859E85AF85B8890097A105B10521F455
:1029D00080E30E944B1450C01A822EC08A81082FB7
:1029E00010E08D859E85AF85B8892AE030E040E013
:1029F00050E0BC01CD010E94F517DC01CB01282F6E
:102A0000205DCE010396FC01E00FF11F20838A8137
:102A10008F5F8A838D859E85AF85B8892AE030E0F7
:102A200040E050E0BC01CD010E94F517DA01C90178
:102A30008D879E87AF87B88B8D859E85AF85B8893A
:102A4000181619061A061B064CF28A81898311C0D2
:102A50008981882F90E09C0121503040CE0103965F
:102A6000FC01E20FF31F80810E944B148981815089
:102A700089838981882361F760960FB6F894DEBF59
:102A80000FBECDBFCF91DF911F910F910895DF93BE
:102A9000CF93CDB7DEB727970FB6F894DEBF0FBE42
:102AA000CDBF9C838B836D834E832F831A828D8150
:102AB000882F90E0880F991F880F991F880F991F02
:102AC0008A838A8180640E94111419820EC08981D0
:102AD000282F30E08B819C81FC01E20FF31F808165
:102AE0000E944B1489818F5F89838981883078F3B4
:102AF0008E816F810E949A148D810E944B142796BB
:102B00000FB6F894DEBF0FBECDBFCF91DF91089511
:102B1000DF93CF93CDB7DEB782E060E040E00E9464
:102B20006F0F82E062E041E00E946F0FCF91DF9172
:102B30000895DF93CF93CDB7DEB782E062E040E047
:102B40000E946F0F82E061E040E00E946F0F82E020
:102B500060E041E00E946F0FCF91DF910895DF9315
:102B6000CF93CDB7DEB782E062E040E00E946F0F06
:102B700082E060E040E00E946F0F82E061E041E0AF
:102B80000E946F0FCF91DF910895DF93CF93CDB760
:102B9000DEB78091AA019091AB0101969093AB01B1
:102BA0008093AA01CF91DF910895DF93CF93CDB7A2
:102BB000DEB70E94380C0E9437140E945A0C0E9403
:102BC000720982E19AE70E94990985EC95E10E94D9
:102BD000EC098EEA91E00E94DC068EEA91E028E89A
:102BE00035E1B9010E94FC06CF91DF910895DF9392
:102BF000CF93CDB7DEB78091AA019091AB0185301C
:102C00009105A9F480918E0190918F0185309105F5
:102C100071F08EEA91E02FEA35E1B9010E94FC06DD
:102C200085E090E090938F0180938E0145C0809164
:102C3000AA019091AB018A309105A9F480918E018F
:102C400090918F018A30910571F08EEA91E029E927
:102C500035E1B9010E94FC068AE090E090938F0173
:102C600080938E0129C08091AA019091AB018F3091
:102C7000910511F580918E0190918F018F30910512
:102C8000D9F08EEA91E02CEA31E0B9010E944A07BE
:102C90008EEA91E02CEA31E0B9010E944A071092D5
:102CA000AB011092AA018FEF9FEF90938F01809359
:102CB0008E0181E00E941114CF91DF910895DF937E
:102CC000CF93CDB7DEB7E091AE01F091AF01828135
:102CD00093819093AD018093AC01E091AC01F091B0
:102CE000AD0109950E94F71580E060E00E949A14FA
:102CF0008091AA019091AB01AA2797FDA095BA2FC8
:102D0000BC01CD010E94B81481E060E00E949A14D9
:102D10008091B0019091B101A091B201B091B30145
:102D2000BC01CD010E94B814CF91DF910895DF93CB
:102D3000CF9300D000D0CDB7DEB769837A838B8381
:102D40009C8369817A818B819C8120E03FEF4FE7F2
:102D500057E40E941F02DC01CB01BC01CD010E949F
:102D60004900DC01CB01BC01CD010F900F900F9009
:102D70000F90CF91DF910895DF93CF9300D000D0D3
:102D8000CDB7DEB769837A838B839C8389819A81EF
:102D9000AB81BC81DC0199278827BC01CD010F9054
:102DA0000F900F900F90CF91DF910895DF93CF9305
:102DB00000D000D0CDB7DEB769837A838B839C8344
:102DC00089819A81AB81BC81CD01AA27BB27BC0137
:102DD000CD010F900F900F900F90CF91DF9108953C
:102DE000EF92FF920F931F93DF93CF93CDB7DEB790
:102DF0002E970FB6F894DEBF0FBECDBF6B877C87D2
:102E00008D879E8780E090E0A0E0B0E08F83988778
:102E1000A987BA871B821C821D821E828B859C8596
:102E2000AD85BE85CD01AA27BB279A8389838B8573
:102E30009C85AD85BE85A070B07024E630E040E092
:102E400050E0BC01CD010E94A017DC01CB012FEFA7
:102E50003FEF40E050E0BC01CD010E94D317DA0102
:102E6000C9018B839C83AD83BE8389819A81CC0108
:102E7000A0E0B0E0BC01CD010E9449047B018C01BF
:102E80006B817C818D819E810E944904DC01CB0194
:102E9000BC01CD0120E030E040E85FE30E94F20198
:102EA000DC01CB01BC01CD0120E030E048EC52E474
:102EB0000E941903DC01CB019C01AD01C801B701DF
:102EC0000E94F201DC01CB018F839887A987BA8722
:102ED0008F819885A985BA85BC01CD012E960FB644
:102EE000F894DEBF0FBECDBFCF91DF911F910F9140
:102EF000FF90EF900895DF93CF9300D000D0CDB72F
:102F0000DEB70E94D51569E979E182E090E00E9480
:102F1000F016DC01CB0189839A83AB83BC8380E00C
:102F200060E00E949A1469817A818B819C810E9461
:102F3000F503DC01CB01BC01CD010E94B814E3CF45
:102F4000629FD001739FF001829FE00DF11D649F8D
:102F5000E00DF11D929FF00D839FF00D749FF00D19
:102F6000659FF00D9927729FB00DE11DF91F639FBA
:102F7000B00DE11DF91FBD01CF0111240895AA1B59
:102F8000BB1B51E107C0AA1FBB1FA617B70710F054
:102F9000A61BB70B881F991F5A95A9F78095909586
:102FA000BC01CD010895A1E21A2EAA1BBB1BFD0195
:102FB0000DC0AA1FBB1FEE1FFF1FA217B307E40718
:102FC000F50720F0A21BB30BE40BF50B661F771F70
:102FD000881F991F1A9469F7609570958095909550
:102FE0009B01AC01BD01CF01089597FB092E052679
:102FF0000ED057FD04D0D7DF0AD0001C38F450950E
:103000004095309521953F4F4F4F5F4F0895F6F70C
:1030100090958095709561957F4F8F4F9F4F089544
:103020002F923F924F925F926F927F928F929F92D8
:10303000AF92BF92CF92DF92EF92FF920F931F93C6
:10304000CF93DF93CDB7DEB7CA1BDB0B0FB6F89477
:10305000DEBF0FBECDBF09942A88398848885F84B7
:103060006E847D848C849B84AA84B984C884DF8028
:10307000EE80FD800C811B81AA81B981CE0FD11D0C
:103080000FB6F894DEBF0FBECDBFED010895CF930C
:10309000DF93BC018230910510F462E070E0A091F2
:1030A000B601B091B701ED01E0E0F0E040E050E0A2
:1030B00021C0888199818617970769F48A819B814D
:1030C000309719F09383828304C09093B701809363
:1030D000B601FE0134C06817790738F4411551056F
:1030E00019F08417950708F4AC01FE018A819B81D1
:1030F0009C01E9012097E9F641155105A9F1CA01A2
:10310000861B970B049708F4BA01E0E0F0E02AC0B0
:103110008D919C91119784179507F9F464177507A1
:1031200081F412968D919C911397309719F09383A7
:10313000828304C09093B7018093B601FD0132965B
:103140004FC0CA01861B970BFD01E80FF91F619361
:10315000719302978D939C9343C0FD01828193816B
:103160009C01D9011097A1F68091B4019091B5010D
:10317000892B41F480918A0190918B019093B50144
:103180008093B40140918C0150918D0141155105FE
:1031900041F44DB75EB78091880190918901481B39
:1031A000590B2091B4013091B50124173507B0F4C3
:1031B000CA01821B930B8617970780F0AB014E5F05
:1031C0005F4F8417950750F0420F531F5093B5017E
:1031D0004093B401F9016193719302C0E0E0F0E023
:1031E000CF01DF91CF910895CF93DF93009709F43A
:1031F00050C0EC0122971B821A82A091B601B091B7
:10320000B701109709F140E050E0AC17BD0708F195
:10321000BB83AA83FE0121913191E20FF31FAE1708
:10322000BF0779F48D919C911197280F391F2E5F5C
:103230003F4F3983288312968D919C9113979B83DE
:103240008A834115510571F4D093B701C093B6013B
:1032500020C012968D919C911397AD01009711F0AB
:10326000DC01D3CFFA01D383C28321913191E20FE4
:10327000F31FCE17DF0769F488819981280F391F62
:103280002E5F3F4FFA01318320838A819B81938394
:103290008283DF91CF910895A0E0B0E0E2E5F9E10B
:1032A0000C942018FE013596619171918091BA01BC
:1032B0009091BB01AF010E9461192096E2E00C944D
:1032C0003C18ABE0B0E0E7E6F9E10C9410183C01E3
:1032D0002B015A01FC0117821682838181FD03C0F4
:1032E0006FEF7FEFC6C19AE0892E1E010894211C62
:1032F000311CF3012381F20123FD859123FF81918C
:103300002F01882309F4B2C1853239F423FD859158
:1033100023FF81912F01853229F490E0B3010E94AF
:10332000541BE7CF982FFF24EE249924FFE1FF15CB
:10333000D0F09B3269F09C3228F4903259F09332ED
:1033400091F40EC09D3249F0903369F441E024C0FD
:1033500052E0F52A84E0F82A28C098E0F92A25C02E
:10336000E0E1FE2A22C0F7FC29C0892F80538A3071
:1033700070F4F6FE05C0989C902C1124980E15C090
:10338000E89CE02C1124E80EF0E2FF2A0EC09E32E9
:1033900029F4F6FC6BC140E4F42A07C09C3619F40A
:1033A00050E8F52A02C0983649F4F20123FD9591C0
:1033B00023FF91912F01992309F0B8CF892F8554CC
:1033C000833018F08052833038F444E050E0A40E8B
:1033D000B51E5FE359830FC0933631F0933779F010
:1033E000933509F056C020C0F5018081898342E001
:1033F00050E0A40EB51E610101E010E012C0F5011D
:10340000C080D180F6FC03C06FEF7FEF02C0692D52
:1034100070E042E050E0A40EB51EC6010E94491BB8
:103420008C015FE7F52214C0F501C080D180F6FC65
:1034300003C06FEF7FEF02C0692D70E042E050E003
:10344000A40EB51EC6010E943E1B8C0150E8F52A51
:10345000F3FE07C01AC080E290E0B3010E94541B43
:10346000EA948E2D90E008171907A8F30EC0F60114
:10347000F7FC8591F7FE81916F0190E0B3010E9406
:10348000541BE110EA94015010400115110579F721
:10349000EAC0943611F0993669F5F7FE08C0F501D7
:1034A000208131814281538184E090E00AC0F5019E
:1034B000808191819C01442737FD4095542F82E003
:1034C00090E0A80EB91E9FE6F92257FF09C050955B
:1034D0004095309521953F4F4F4F5F4FE0E8FE2AD2
:1034E000CA01B901A1012AE030E00E94801BD82E58
:1034F000D21840C0953729F41F2D1F7E2AE030E0F6
:103500001DC01F2D197F9F3661F0903720F498352C
:1035100009F0ACC00FC0903739F0983709F0A6C059
:1035200004C028E030E00AC0106114FD146020E1FE
:1035300030E004C014FD166020E132E017FF08C03F
:10354000F501608171818281938144E050E008C07F
:10355000F50180819181BC0180E090E042E050E083
:10356000A40EB51EA1010E94801BD82ED2188FE791
:10357000F82EF122F6FE0BC05EEFF522D91438F4D6
:10358000F4FE07C0F2FC05C08FEEF82202C01D2D2C
:1035900001C0192DF4FE0DC0FE01ED0DF11D80815D
:1035A000803319F499EEF92208C01F5FF2FE05C0BE
:1035B00003C08F2D867809F01F5F0F2DF3FC14C018
:1035C000F0FE0FC01E1510F09D2C0BC09D2C9E0C04
:1035D000911A1E2D06C080E290E0B3010E94541B98
:1035E0001F5F1E15C0F304C01E1510F4E11A01C0C0
:1035F000EE2404FF0FC080E390E0B3010E94541B4F
:1036000002FF1DC001FD03C088E790E00EC088E501
:1036100090E00BC0802F867891F001FF02C08BE212
:1036200001C080E2F7FC8DE290E0B3010E94541BE0
:1036300006C080E390E0B3010E94541B9A94D91411
:10364000C0F3DA94F101ED0DF11D808190E0B3013A
:103650000E94541BDD20A9F706C080E290E0B30170
:103660000E94541BEA94EE20C1F743CEF301668119
:103670007781CB012B96E2E10C942C18FC0105908C
:10368000615070400110D8F7809590958E0F9F1F64
:103690000895FC016150704001900110D8F78095A9
:1036A00090958E0F9F1F08950F931F93CF93DF93D5
:1036B0008C01EB018B8181FF1BC082FF0DC02E812D
:1036C0003F818C819D812817390764F4E881F98155
:1036D0000193F983E88306C0E885F985802F099571
:1036E000892B31F48E819F8101969F838E8302C046
:1036F0000FEF1FEFC801DF91CF911F910F91089538
:10370000FA01AA27283051F1203181F1E8946F9312
:103710006E7F6E5F7F4F8F4F9F4FAF4FB1E03ED0B8
:10372000B4E03CD0670F781F891F9A1FA11D680F56
:10373000791F8A1F911DA11D6A0F711D811D911D89
:10374000A11D20D009F468943F912AE0269F1124FE
:103750003019305D3193DEF6CF010895462F477062
:10376000405D4193B3E00FD0C9F7F6CF462F4F70BD
:10377000405D4A3318F0495D31FD4052419302D01B
:10378000A9F7EACFB4E0A6959795879577956795C1
:10379000BA95C9F700976105710508959B01AC01C1
:1037A0000A2E06945795479537952795BA95C9F7E8
:1037B000620F731F841F951FA01D0895F894FFCFFB
:1037C000456C656D656E7420616464726573733AEF
:1037D0002025702C2076616C75653A2025640A00DE
:1037E00000000000000000000001020203030303C8
:1037F0000404040404040404050505050505050581
:103800000505050505050505060606060606060660
:103810000606060606060606060606060606060648
:103820000606060606060606070707070707070730
:103830000707070707070707070707070707070718
:103840000707070707070707070707070707070708
:1038500007070707070707070707070707070707F8
:1038600007070707070707070808080808080808E0
:1038700008080808080808080808080808080808C8
:1038800008080808080808080808080808080808B8
:1038900008080808080808080808080808080808A8
:1038A0000808080808080808080808080808080898
:1038B0000808080808080808080808080808080888
:1038C0000808080808080808080808080808080878
:1038D0000808080808080808080808080808080868
:1038E00008080808080808082000BE010000FFFFBB
:00000001FF
